{
	"contracts/PaymentContract.sol": {
		"PaymentContract": {
			"abi": [
				{
					"inputs": [
						{
							"internalType": "address",
							"name": "_gameTokenAddress",
							"type": "address"
						}
					],
					"stateMutability": "nonpayable",
					"type": "constructor"
				},
				{
					"inputs": [
						{
							"internalType": "address",
							"name": "owner",
							"type": "address"
						}
					],
					"name": "OwnableInvalidOwner",
					"type": "error"
				},
				{
					"inputs": [
						{
							"internalType": "address",
							"name": "account",
							"type": "address"
						}
					],
					"name": "OwnableUnauthorizedAccount",
					"type": "error"
				},
				{
					"anonymous": false,
					"inputs": [
						{
							"indexed": false,
							"internalType": "address",
							"name": "sender",
							"type": "address"
						},
						{
							"indexed": false,
							"internalType": "uint256",
							"name": "amount",
							"type": "uint256"
						},
						{
							"indexed": false,
							"internalType": "uint256",
							"name": "currentBalance",
							"type": "uint256"
						}
					],
					"name": "AVAXReceived",
					"type": "event"
				},
				{
					"anonymous": false,
					"inputs": [
						{
							"indexed": true,
							"internalType": "address",
							"name": "owner",
							"type": "address"
						},
						{
							"indexed": false,
							"internalType": "uint256",
							"name": "amount",
							"type": "uint256"
						}
					],
					"name": "AVAXWithdrawn",
					"type": "event"
				},
				{
					"anonymous": false,
					"inputs": [
						{
							"indexed": false,
							"internalType": "address",
							"name": "newGameTokenAddress",
							"type": "address"
						}
					],
					"name": "GameTokenAddressUpdated",
					"type": "event"
				},
				{
					"anonymous": false,
					"inputs": [
						{
							"indexed": true,
							"internalType": "address",
							"name": "previousOwner",
							"type": "address"
						},
						{
							"indexed": true,
							"internalType": "address",
							"name": "newOwner",
							"type": "address"
						}
					],
					"name": "OwnershipTransferred",
					"type": "event"
				},
				{
					"anonymous": false,
					"inputs": [
						{
							"indexed": true,
							"internalType": "address",
							"name": "buyer",
							"type": "address"
						},
						{
							"indexed": false,
							"internalType": "uint256",
							"name": "avaxAmount",
							"type": "uint256"
						},
						{
							"indexed": false,
							"internalType": "uint256",
							"name": "tokenAmount",
							"type": "uint256"
						}
					],
					"name": "TokensPurchased",
					"type": "event"
				},
				{
					"inputs": [],
					"name": "gameToken",
					"outputs": [
						{
							"internalType": "contract GameToken",
							"name": "",
							"type": "address"
						}
					],
					"stateMutability": "view",
					"type": "function"
				},
				{
					"inputs": [],
					"name": "getBalance",
					"outputs": [
						{
							"internalType": "uint256",
							"name": "",
							"type": "uint256"
						}
					],
					"stateMutability": "view",
					"type": "function"
				},
				{
					"inputs": [],
					"name": "owner",
					"outputs": [
						{
							"internalType": "address",
							"name": "",
							"type": "address"
						}
					],
					"stateMutability": "view",
					"type": "function"
				},
				{
					"inputs": [],
					"name": "renounceOwnership",
					"outputs": [],
					"stateMutability": "nonpayable",
					"type": "function"
				},
				{
					"inputs": [
						{
							"internalType": "address",
							"name": "_gameTokenAddress",
							"type": "address"
						}
					],
					"name": "setGameTokenAddress",
					"outputs": [],
					"stateMutability": "nonpayable",
					"type": "function"
				},
				{
					"inputs": [],
					"name": "tokenRate",
					"outputs": [
						{
							"internalType": "uint256",
							"name": "",
							"type": "uint256"
						}
					],
					"stateMutability": "view",
					"type": "function"
				},
				{
					"inputs": [
						{
							"internalType": "address",
							"name": "newOwner",
							"type": "address"
						}
					],
					"name": "transferOwnership",
					"outputs": [],
					"stateMutability": "nonpayable",
					"type": "function"
				},
				{
					"inputs": [
						{
							"internalType": "uint256",
							"name": "amountInAVAX",
							"type": "uint256"
						}
					],
					"name": "withdrawAVAX",
					"outputs": [],
					"stateMutability": "nonpayable",
					"type": "function"
				},
				{
					"stateMutability": "payable",
					"type": "receive"
				}
			],
			"devdoc": {
				"errors": {
					"OwnableInvalidOwner(address)": [
						{
							"details": "The owner is not a valid owner account. (eg. `address(0)`)"
						}
					],
					"OwnableUnauthorizedAccount(address)": [
						{
							"details": "The caller account is not authorized to perform an operation."
						}
					]
				},
				"kind": "dev",
				"methods": {
					"owner()": {
						"details": "Returns the address of the current owner."
					},
					"renounceOwnership()": {
						"details": "Leaves the contract without owner. It will not be possible to call `onlyOwner` functions. Can only be called by the current owner. NOTE: Renouncing ownership will leave the contract without an owner, thereby disabling any functionality that is only available to the owner."
					},
					"transferOwnership(address)": {
						"details": "Transfers ownership of the contract to a new account (`newOwner`). Can only be called by the current owner."
					}
				},
				"version": 1
			},
			"evm": {
				"assembly": "    /* \"contracts/PaymentContract.sol\":138:2426  contract PaymentContract is Ownable {... */\n  mstore(0x40, 0x80)\n    /* \"contracts/PaymentContract.sol\":737:738  2 */\n  0x02\n    /* \"contracts/PaymentContract.sol\":710:738  uint256 public tokenRate = 2 */\n  dup1\n  sstore\n    /* \"contracts/PaymentContract.sol\":543:659  constructor(address _gameTokenAddress) Ownable(msg.sender) {... */\n  callvalue\n  dup1\n  iszero\n  tag_1\n  jumpi\n  revert(0x00, 0x00)\ntag_1:\n  pop\n  mload(0x40)\n  sub(codesize, bytecodeSize)\n  dup1\n  bytecodeSize\n  dup4\n  codecopy\n  dup2\n  dup2\n  add\n  0x40\n  mstore\n  dup2\n  add\n  swap1\n  tag_2\n  swap2\n  swap1\n  tag_3\n  jump\t// in\ntag_2:\n    /* \"contracts/PaymentContract.sol\":590:600  msg.sender */\n  caller\n    /* \"@openzeppelin/contracts/access/Ownable.sol\":1297:1298  0 */\n  0x00\n    /* \"@openzeppelin/contracts/access/Ownable.sol\":1273:1299  initialOwner == address(0) */\n  0xffffffffffffffffffffffffffffffffffffffff\n  and\n    /* \"@openzeppelin/contracts/access/Ownable.sol\":1273:1285  initialOwner */\n  dup2\n    /* \"@openzeppelin/contracts/access/Ownable.sol\":1273:1299  initialOwner == address(0) */\n  0xffffffffffffffffffffffffffffffffffffffff\n  and\n  sub\n    /* \"@openzeppelin/contracts/access/Ownable.sol\":1269:1364  if (initialOwner == address(0)) {... */\n  tag_7\n  jumpi\n    /* \"@openzeppelin/contracts/access/Ownable.sol\":1350:1351  0 */\n  0x00\n    /* \"@openzeppelin/contracts/access/Ownable.sol\":1322:1353  OwnableInvalidOwner(address(0)) */\n  mload(0x40)\n  0x1e4fbdf700000000000000000000000000000000000000000000000000000000\n  dup2\n  mstore\n  0x04\n  add\n  tag_8\n  swap2\n  swap1\n  tag_9\n  jump\t// in\ntag_8:\n  mload(0x40)\n  dup1\n  swap2\n  sub\n  swap1\n  revert\n    /* \"@openzeppelin/contracts/access/Ownable.sol\":1269:1364  if (initialOwner == address(0)) {... */\ntag_7:\n    /* \"@openzeppelin/contracts/access/Ownable.sol\":1373:1405  _transferOwnership(initialOwner) */\n  tag_10\n    /* \"@openzeppelin/contracts/access/Ownable.sol\":1392:1404  initialOwner */\n  dup2\n    /* \"@openzeppelin/contracts/access/Ownable.sol\":1373:1391  _transferOwnership */\n  shl(0x20, tag_11)\n    /* \"@openzeppelin/contracts/access/Ownable.sol\":1373:1405  _transferOwnership(initialOwner) */\n  0x20\n  shr\n  jump\t// in\ntag_10:\n    /* \"@openzeppelin/contracts/access/Ownable.sol\":1225:1412  constructor(address initialOwner) {... */\n  pop\n    /* \"contracts/PaymentContract.sol\":634:651  _gameTokenAddress */\n  dup1\n    /* \"contracts/PaymentContract.sol\":612:621  gameToken */\n  0x01\n  0x00\n    /* \"contracts/PaymentContract.sol\":612:652  gameToken = GameToken(_gameTokenAddress) */\n  0x0100\n  exp\n  dup2\n  sload\n  dup2\n  0xffffffffffffffffffffffffffffffffffffffff\n  mul\n  not\n  and\n  swap1\n  dup4\n  0xffffffffffffffffffffffffffffffffffffffff\n  and\n  mul\n  or\n  swap1\n  sstore\n  pop\n    /* \"contracts/PaymentContract.sol\":543:659  constructor(address _gameTokenAddress) Ownable(msg.sender) {... */\n  pop\n    /* \"contracts/PaymentContract.sol\":138:2426  contract PaymentContract is Ownable {... */\n  jump(tag_13)\n    /* \"@openzeppelin/contracts/access/Ownable.sol\":2912:3099  function _transferOwnership(address newOwner) internal virtual {... */\ntag_11:\n    /* \"@openzeppelin/contracts/access/Ownable.sol\":2985:3001  address oldOwner */\n  0x00\n    /* \"@openzeppelin/contracts/access/Ownable.sol\":3004:3010  _owner */\n  0x00\n  0x00\n  swap1\n  sload\n  swap1\n  0x0100\n  exp\n  swap1\n  div\n  0xffffffffffffffffffffffffffffffffffffffff\n  and\n    /* \"@openzeppelin/contracts/access/Ownable.sol\":2985:3010  address oldOwner = _owner */\n  swap1\n  pop\n    /* \"@openzeppelin/contracts/access/Ownable.sol\":3029:3037  newOwner */\n  dup2\n    /* \"@openzeppelin/contracts/access/Ownable.sol\":3020:3026  _owner */\n  0x00\n  0x00\n    /* \"@openzeppelin/contracts/access/Ownable.sol\":3020:3037  _owner = newOwner */\n  0x0100\n  exp\n  dup2\n  sload\n  dup2\n  0xffffffffffffffffffffffffffffffffffffffff\n  mul\n  not\n  and\n  swap1\n  dup4\n  0xffffffffffffffffffffffffffffffffffffffff\n  and\n  mul\n  or\n  swap1\n  sstore\n  pop\n    /* \"@openzeppelin/contracts/access/Ownable.sol\":3083:3091  newOwner */\n  dup2\n    /* \"@openzeppelin/contracts/access/Ownable.sol\":3052:3092  OwnershipTransferred(oldOwner, newOwner) */\n  0xffffffffffffffffffffffffffffffffffffffff\n  and\n    /* \"@openzeppelin/contracts/access/Ownable.sol\":3073:3081  oldOwner */\n  dup2\n    /* \"@openzeppelin/contracts/access/Ownable.sol\":3052:3092  OwnershipTransferred(oldOwner, newOwner) */\n  0xffffffffffffffffffffffffffffffffffffffff\n  and\n  0x8be0079c531659141344cd1fd0a4f28419497f9722a3daafe3b4186f6b6457e0\n  mload(0x40)\n  mload(0x40)\n  dup1\n  swap2\n  sub\n  swap1\n  log3\n    /* \"@openzeppelin/contracts/access/Ownable.sol\":2975:3099  {... */\n  pop\n    /* \"@openzeppelin/contracts/access/Ownable.sol\":2912:3099  function _transferOwnership(address newOwner) internal virtual {... */\n  pop\n  jump\t// out\n    /* \"#utility.yul\":88:205   */\ntag_16:\n    /* \"#utility.yul\":197:198   */\n  0x00\n    /* \"#utility.yul\":194:195   */\n  0x00\n    /* \"#utility.yul\":187:199   */\n  revert\n    /* \"#utility.yul\":334:460   */\ntag_18:\n    /* \"#utility.yul\":371:378   */\n  0x00\n    /* \"#utility.yul\":411:453   */\n  0xffffffffffffffffffffffffffffffffffffffff\n    /* \"#utility.yul\":404:409   */\n  dup3\n    /* \"#utility.yul\":400:454   */\n  and\n    /* \"#utility.yul\":389:454   */\n  swap1\n  pop\n    /* \"#utility.yul\":334:460   */\n  swap2\n  swap1\n  pop\n  jump\t// out\n    /* \"#utility.yul\":466:562   */\ntag_19:\n    /* \"#utility.yul\":503:510   */\n  0x00\n    /* \"#utility.yul\":532:556   */\n  tag_29\n    /* \"#utility.yul\":550:555   */\n  dup3\n    /* \"#utility.yul\":532:556   */\n  tag_18\n  jump\t// in\ntag_29:\n    /* \"#utility.yul\":521:556   */\n  swap1\n  pop\n    /* \"#utility.yul\":466:562   */\n  swap2\n  swap1\n  pop\n  jump\t// out\n    /* \"#utility.yul\":568:690   */\ntag_20:\n    /* \"#utility.yul\":641:665   */\n  tag_31\n    /* \"#utility.yul\":659:664   */\n  dup2\n    /* \"#utility.yul\":641:665   */\n  tag_19\n  jump\t// in\ntag_31:\n    /* \"#utility.yul\":634:639   */\n  dup2\n    /* \"#utility.yul\":631:666   */\n  eq\n    /* \"#utility.yul\":621:684   */\n  tag_32\n  jumpi\n    /* \"#utility.yul\":680:681   */\n  0x00\n    /* \"#utility.yul\":677:678   */\n  0x00\n    /* \"#utility.yul\":670:682   */\n  revert\n    /* \"#utility.yul\":621:684   */\ntag_32:\n    /* \"#utility.yul\":568:690   */\n  pop\n  jump\t// out\n    /* \"#utility.yul\":696:839   */\ntag_21:\n    /* \"#utility.yul\":753:758   */\n  0x00\n    /* \"#utility.yul\":784:790   */\n  dup2\n    /* \"#utility.yul\":778:791   */\n  mload\n    /* \"#utility.yul\":769:791   */\n  swap1\n  pop\n    /* \"#utility.yul\":800:833   */\n  tag_34\n    /* \"#utility.yul\":827:832   */\n  dup2\n    /* \"#utility.yul\":800:833   */\n  tag_20\n  jump\t// in\ntag_34:\n    /* \"#utility.yul\":696:839   */\n  swap3\n  swap2\n  pop\n  pop\n  jump\t// out\n    /* \"#utility.yul\":845:1196   */\ntag_3:\n    /* \"#utility.yul\":915:921   */\n  0x00\n    /* \"#utility.yul\":964:966   */\n  0x20\n    /* \"#utility.yul\":952:961   */\n  dup3\n    /* \"#utility.yul\":943:950   */\n  dup5\n    /* \"#utility.yul\":939:962   */\n  sub\n    /* \"#utility.yul\":935:967   */\n  slt\n    /* \"#utility.yul\":932:1051   */\n  iszero\n  tag_36\n  jumpi\n    /* \"#utility.yul\":970:1049   */\n  tag_37\n  tag_16\n  jump\t// in\ntag_37:\n    /* \"#utility.yul\":932:1051   */\ntag_36:\n    /* \"#utility.yul\":1090:1091   */\n  0x00\n    /* \"#utility.yul\":1115:1179   */\n  tag_38\n    /* \"#utility.yul\":1171:1178   */\n  dup5\n    /* \"#utility.yul\":1162:1168   */\n  dup3\n    /* \"#utility.yul\":1151:1160   */\n  dup6\n    /* \"#utility.yul\":1147:1169   */\n  add\n    /* \"#utility.yul\":1115:1179   */\n  tag_21\n  jump\t// in\ntag_38:\n    /* \"#utility.yul\":1105:1179   */\n  swap2\n  pop\n    /* \"#utility.yul\":1061:1189   */\n  pop\n    /* \"#utility.yul\":845:1196   */\n  swap3\n  swap2\n  pop\n  pop\n  jump\t// out\n    /* \"#utility.yul\":1202:1320   */\ntag_22:\n    /* \"#utility.yul\":1289:1313   */\n  tag_40\n    /* \"#utility.yul\":1307:1312   */\n  dup2\n    /* \"#utility.yul\":1289:1313   */\n  tag_19\n  jump\t// in\ntag_40:\n    /* \"#utility.yul\":1284:1287   */\n  dup3\n    /* \"#utility.yul\":1277:1314   */\n  mstore\n    /* \"#utility.yul\":1202:1320   */\n  pop\n  pop\n  jump\t// out\n    /* \"#utility.yul\":1326:1548   */\ntag_9:\n    /* \"#utility.yul\":1419:1423   */\n  0x00\n    /* \"#utility.yul\":1457:1459   */\n  0x20\n    /* \"#utility.yul\":1446:1455   */\n  dup3\n    /* \"#utility.yul\":1442:1460   */\n  add\n    /* \"#utility.yul\":1434:1460   */\n  swap1\n  pop\n    /* \"#utility.yul\":1470:1541   */\n  tag_42\n    /* \"#utility.yul\":1538:1539   */\n  0x00\n    /* \"#utility.yul\":1527:1536   */\n  dup4\n    /* \"#utility.yul\":1523:1540   */\n  add\n    /* \"#utility.yul\":1514:1520   */\n  dup5\n    /* \"#utility.yul\":1470:1541   */\n  tag_22\n  jump\t// in\ntag_42:\n    /* \"#utility.yul\":1326:1548   */\n  swap3\n  swap2\n  pop\n  pop\n  jump\t// out\n    /* \"contracts/PaymentContract.sol\":138:2426  contract PaymentContract is Ownable {... */\ntag_13:\n  dataSize(sub_0)\n  dup1\n  dataOffset(sub_0)\n  0x00\n  codecopy\n  0x00\n  return\nstop\n\nsub_0: assembly {\n        /* \"contracts/PaymentContract.sol\":138:2426  contract PaymentContract is Ownable {... */\n      mstore(0x40, 0x80)\n      jumpi(tag_1, lt(calldatasize, 0x04))\n      shr(0xe0, calldataload(0x00))\n      dup1\n      0x9ff933d1\n      gt\n      tag_11\n      jumpi\n      dup1\n      0x9ff933d1\n      eq\n      tag_7\n      jumpi\n      dup1\n      0xaeb5cd5e\n      eq\n      tag_8\n      jumpi\n      dup1\n      0xc3dfdae6\n      eq\n      tag_9\n      jumpi\n      dup1\n      0xf2fde38b\n      eq\n      tag_10\n      jumpi\n      jump(tag_2)\n    tag_11:\n      dup1\n      0x12065fe0\n      eq\n      tag_3\n      jumpi\n      dup1\n      0x31711884\n      eq\n      tag_4\n      jumpi\n      dup1\n      0x715018a6\n      eq\n      tag_5\n      jumpi\n      dup1\n      0x8da5cb5b\n      eq\n      tag_6\n      jumpi\n      jump(tag_2)\n    tag_1:\n      jumpi(tag_2, calldatasize)\n        /* \"contracts/PaymentContract.sol\":852:870  uint256 avaxAmount */\n      0x00\n        /* \"contracts/PaymentContract.sol\":873:882  msg.value */\n      callvalue\n        /* \"contracts/PaymentContract.sol\":852:882  uint256 avaxAmount = msg.value */\n      swap1\n      pop\n        /* \"contracts/PaymentContract.sol\":968:988  uint256 tokensToMint */\n      0x00\n        /* \"contracts/PaymentContract.sol\":1016:1025  tokenRate */\n      sload(0x02)\n        /* \"contracts/PaymentContract.sol\":1005:1012  1 ether */\n      0x0de0b6b3a7640000\n        /* \"contracts/PaymentContract.sol\":992:1002  avaxAmount */\n      dup4\n        /* \"contracts/PaymentContract.sol\":992:1012  avaxAmount / 1 ether */\n      tag_14\n      swap2\n      swap1\n      tag_15\n      jump\t// in\n    tag_14:\n        /* \"contracts/PaymentContract.sol\":991:1025  (avaxAmount / 1 ether) * tokenRate */\n      tag_16\n      swap2\n      swap1\n      tag_17\n      jump\t// in\n    tag_16:\n        /* \"contracts/PaymentContract.sol\":968:1025  uint256 tokensToMint = (avaxAmount / 1 ether) * tokenRate */\n      swap1\n      pop\n        /* \"contracts/PaymentContract.sol\":1144:1154  msg.sender */\n      caller\n        /* \"contracts/PaymentContract.sol\":1128:1181  TokensPurchased(msg.sender, avaxAmount, tokensToMint) */\n      0xffffffffffffffffffffffffffffffffffffffff\n      and\n      0x8fafebcaf9d154343dad25669bfa277f4fbacd7ac6b0c4fed522580e040a0f33\n        /* \"contracts/PaymentContract.sol\":1156:1166  avaxAmount */\n      dup4\n        /* \"contracts/PaymentContract.sol\":1168:1180  tokensToMint */\n      dup4\n        /* \"contracts/PaymentContract.sol\":1128:1181  TokensPurchased(msg.sender, avaxAmount, tokensToMint) */\n      mload(0x40)\n      tag_18\n      swap3\n      swap2\n      swap1\n      tag_19\n      jump\t// in\n    tag_18:\n      mload(0x40)\n      dup1\n      swap2\n      sub\n      swap1\n      log2\n        /* \"contracts/PaymentContract.sol\":1229:1238  gameToken */\n      0x01\n      0x00\n      swap1\n      sload\n      swap1\n      0x0100\n      exp\n      swap1\n      div\n      0xffffffffffffffffffffffffffffffffffffffff\n      and\n        /* \"contracts/PaymentContract.sol\":1229:1243  gameToken.mint */\n      0xffffffffffffffffffffffffffffffffffffffff\n      and\n      0x40c10f19\n        /* \"contracts/PaymentContract.sol\":1244:1254  msg.sender */\n      caller\n        /* \"contracts/PaymentContract.sol\":1256:1268  tokensToMint */\n      dup4\n        /* \"contracts/PaymentContract.sol\":1229:1269  gameToken.mint(msg.sender, tokensToMint) */\n      mload(0x40)\n      dup4\n      0xffffffff\n      and\n      0xe0\n      shl\n      dup2\n      mstore\n      0x04\n      add\n      tag_20\n      swap3\n      swap2\n      swap1\n      tag_21\n      jump\t// in\n    tag_20:\n      0x00\n      mload(0x40)\n      dup1\n      dup4\n      sub\n      dup2\n      0x00\n      dup8\n      dup1\n      extcodesize\n      iszero\n      dup1\n      iszero\n      tag_22\n      jumpi\n      revert(0x00, 0x00)\n    tag_22:\n      pop\n      gas\n      call\n      iszero\n      dup1\n      iszero\n      tag_24\n      jumpi\n      returndatacopy(0x00, 0x00, returndatasize)\n      revert(0x00, returndatasize)\n    tag_24:\n      stop\n        /* \"contracts/PaymentContract.sol\":138:2426  contract PaymentContract is Ownable {... */\n    tag_2:\n      revert(0x00, 0x00)\n        /* \"contracts/PaymentContract.sol\":1949:2081  function getBalance() external view returns (uint256) {... */\n    tag_3:\n      callvalue\n      dup1\n      iszero\n      tag_25\n      jumpi\n      revert(0x00, 0x00)\n    tag_25:\n      pop\n      tag_26\n      tag_27\n      jump\t// in\n    tag_26:\n      mload(0x40)\n      tag_28\n      swap2\n      swap1\n      tag_29\n      jump\t// in\n    tag_28:\n      mload(0x40)\n      dup1\n      swap2\n      sub\n      swap1\n      return\n        /* \"contracts/PaymentContract.sol\":710:738  uint256 public tokenRate = 2 */\n    tag_4:\n      callvalue\n      dup1\n      iszero\n      tag_30\n      jumpi\n      revert(0x00, 0x00)\n    tag_30:\n      pop\n      tag_31\n      tag_32\n      jump\t// in\n    tag_31:\n      mload(0x40)\n      tag_33\n      swap2\n      swap1\n      tag_29\n      jump\t// in\n    tag_33:\n      mload(0x40)\n      dup1\n      swap2\n      sub\n      swap1\n      return\n        /* \"@openzeppelin/contracts/access/Ownable.sol\":2293:2394  function renounceOwnership() public virtual onlyOwner {... */\n    tag_5:\n      callvalue\n      dup1\n      iszero\n      tag_34\n      jumpi\n      revert(0x00, 0x00)\n    tag_34:\n      pop\n      tag_35\n      tag_36\n      jump\t// in\n    tag_35:\n      stop\n        /* \"@openzeppelin/contracts/access/Ownable.sol\":1638:1723  function owner() public view virtual returns (address) {... */\n    tag_6:\n      callvalue\n      dup1\n      iszero\n      tag_37\n      jumpi\n      revert(0x00, 0x00)\n    tag_37:\n      pop\n      tag_38\n      tag_39\n      jump\t// in\n    tag_38:\n      mload(0x40)\n      tag_40\n      swap2\n      swap1\n      tag_41\n      jump\t// in\n    tag_40:\n      mload(0x40)\n      dup1\n      swap2\n      sub\n      swap1\n      return\n        /* \"contracts/PaymentContract.sol\":2166:2424  function setGameTokenAddress(address _gameTokenAddress) external onlyOwner {... */\n    tag_7:\n      callvalue\n      dup1\n      iszero\n      tag_42\n      jumpi\n      revert(0x00, 0x00)\n    tag_42:\n      pop\n      tag_43\n      0x04\n      dup1\n      calldatasize\n      sub\n      dup2\n      add\n      swap1\n      tag_44\n      swap2\n      swap1\n      tag_45\n      jump\t// in\n    tag_44:\n      tag_46\n      jump\t// in\n    tag_43:\n      stop\n        /* \"contracts/PaymentContract.sol\":1349:1858  function withdrawAVAX(uint256 amountInAVAX) external onlyOwner {... */\n    tag_8:\n      callvalue\n      dup1\n      iszero\n      tag_47\n      jumpi\n      revert(0x00, 0x00)\n    tag_47:\n      pop\n      tag_48\n      0x04\n      dup1\n      calldatasize\n      sub\n      dup2\n      add\n      swap1\n      tag_49\n      swap2\n      swap1\n      tag_50\n      jump\t// in\n    tag_49:\n      tag_51\n      jump\t// in\n    tag_48:\n      stop\n        /* \"contracts/PaymentContract.sol\":180:206  GameToken public gameToken */\n    tag_9:\n      callvalue\n      dup1\n      iszero\n      tag_52\n      jumpi\n      revert(0x00, 0x00)\n    tag_52:\n      pop\n      tag_53\n      tag_54\n      jump\t// in\n    tag_53:\n      mload(0x40)\n      tag_55\n      swap2\n      swap1\n      tag_56\n      jump\t// in\n    tag_55:\n      mload(0x40)\n      dup1\n      swap2\n      sub\n      swap1\n      return\n        /* \"@openzeppelin/contracts/access/Ownable.sol\":2543:2758  function transferOwnership(address newOwner) public virtual onlyOwner {... */\n    tag_10:\n      callvalue\n      dup1\n      iszero\n      tag_57\n      jumpi\n      revert(0x00, 0x00)\n    tag_57:\n      pop\n      tag_58\n      0x04\n      dup1\n      calldatasize\n      sub\n      dup2\n      add\n      swap1\n      tag_59\n      swap2\n      swap1\n      tag_45\n      jump\t// in\n    tag_59:\n      tag_60\n      jump\t// in\n    tag_58:\n      stop\n        /* \"contracts/PaymentContract.sol\":1949:2081  function getBalance() external view returns (uint256) {... */\n    tag_27:\n        /* \"contracts/PaymentContract.sol\":1994:2001  uint256 */\n      0x00\n        /* \"contracts/PaymentContract.sol\":2044:2051  1 ether */\n      0x0de0b6b3a7640000\n        /* \"contracts/PaymentContract.sol\":2020:2041  address(this).balance */\n      selfbalance\n        /* \"contracts/PaymentContract.sol\":2020:2051  address(this).balance / 1 ether */\n      tag_62\n      swap2\n      swap1\n      tag_15\n      jump\t// in\n    tag_62:\n        /* \"contracts/PaymentContract.sol\":2013:2051  return address(this).balance / 1 ether */\n      swap1\n      pop\n        /* \"contracts/PaymentContract.sol\":1949:2081  function getBalance() external view returns (uint256) {... */\n      swap1\n      jump\t// out\n        /* \"contracts/PaymentContract.sol\":710:738  uint256 public tokenRate = 2 */\n    tag_32:\n      sload(0x02)\n      dup2\n      jump\t// out\n        /* \"@openzeppelin/contracts/access/Ownable.sol\":2293:2394  function renounceOwnership() public virtual onlyOwner {... */\n    tag_36:\n        /* \"@openzeppelin/contracts/access/Ownable.sol\":1531:1544  _checkOwner() */\n      tag_64\n        /* \"@openzeppelin/contracts/access/Ownable.sol\":1531:1542  _checkOwner */\n      tag_65\n        /* \"@openzeppelin/contracts/access/Ownable.sol\":1531:1544  _checkOwner() */\n      jump\t// in\n    tag_64:\n        /* \"@openzeppelin/contracts/access/Ownable.sol\":2357:2387  _transferOwnership(address(0)) */\n      tag_67\n        /* \"@openzeppelin/contracts/access/Ownable.sol\":2384:2385  0 */\n      0x00\n        /* \"@openzeppelin/contracts/access/Ownable.sol\":2357:2375  _transferOwnership */\n      tag_68\n        /* \"@openzeppelin/contracts/access/Ownable.sol\":2357:2387  _transferOwnership(address(0)) */\n      jump\t// in\n    tag_67:\n        /* \"@openzeppelin/contracts/access/Ownable.sol\":2293:2394  function renounceOwnership() public virtual onlyOwner {... */\n      jump\t// out\n        /* \"@openzeppelin/contracts/access/Ownable.sol\":1638:1723  function owner() public view virtual returns (address) {... */\n    tag_39:\n        /* \"@openzeppelin/contracts/access/Ownable.sol\":1684:1691  address */\n      0x00\n        /* \"@openzeppelin/contracts/access/Ownable.sol\":1710:1716  _owner */\n      0x00\n      0x00\n      swap1\n      sload\n      swap1\n      0x0100\n      exp\n      swap1\n      div\n      0xffffffffffffffffffffffffffffffffffffffff\n      and\n        /* \"@openzeppelin/contracts/access/Ownable.sol\":1703:1716  return _owner */\n      swap1\n      pop\n        /* \"@openzeppelin/contracts/access/Ownable.sol\":1638:1723  function owner() public view virtual returns (address) {... */\n      swap1\n      jump\t// out\n        /* \"contracts/PaymentContract.sol\":2166:2424  function setGameTokenAddress(address _gameTokenAddress) external onlyOwner {... */\n    tag_46:\n        /* \"@openzeppelin/contracts/access/Ownable.sol\":1531:1544  _checkOwner() */\n      tag_71\n        /* \"@openzeppelin/contracts/access/Ownable.sol\":1531:1542  _checkOwner */\n      tag_65\n        /* \"@openzeppelin/contracts/access/Ownable.sol\":1531:1544  _checkOwner() */\n      jump\t// in\n    tag_71:\n        /* \"contracts/PaymentContract.sol\":2288:2289  0 */\n      0x00\n        /* \"contracts/PaymentContract.sol\":2259:2290  _gameTokenAddress != address(0) */\n      0xffffffffffffffffffffffffffffffffffffffff\n      and\n        /* \"contracts/PaymentContract.sol\":2259:2276  _gameTokenAddress */\n      dup2\n        /* \"contracts/PaymentContract.sol\":2259:2290  _gameTokenAddress != address(0) */\n      0xffffffffffffffffffffffffffffffffffffffff\n      and\n      sub\n        /* \"contracts/PaymentContract.sol\":2251:2310  require(_gameTokenAddress != address(0), \"Invalid address\") */\n      tag_73\n      jumpi\n      mload(0x40)\n      0x08c379a000000000000000000000000000000000000000000000000000000000\n      dup2\n      mstore\n      0x04\n      add\n      tag_74\n      swap1\n      tag_75\n      jump\t// in\n    tag_74:\n      mload(0x40)\n      dup1\n      swap2\n      sub\n      swap1\n      revert\n    tag_73:\n        /* \"contracts/PaymentContract.sol\":2342:2359  _gameTokenAddress */\n      dup1\n        /* \"contracts/PaymentContract.sol\":2320:2329  gameToken */\n      0x01\n      0x00\n        /* \"contracts/PaymentContract.sol\":2320:2360  gameToken = GameToken(_gameTokenAddress) */\n      0x0100\n      exp\n      dup2\n      sload\n      dup2\n      0xffffffffffffffffffffffffffffffffffffffff\n      mul\n      not\n      and\n      swap1\n      dup4\n      0xffffffffffffffffffffffffffffffffffffffff\n      and\n      mul\n      or\n      swap1\n      sstore\n      pop\n        /* \"contracts/PaymentContract.sol\":2375:2417  GameTokenAddressUpdated(_gameTokenAddress) */\n      0x4a0158ab28822bd17e87082f66e7c12ca4a26d09a62505945c8767f2bda52a82\n        /* \"contracts/PaymentContract.sol\":2399:2416  _gameTokenAddress */\n      dup2\n        /* \"contracts/PaymentContract.sol\":2375:2417  GameTokenAddressUpdated(_gameTokenAddress) */\n      mload(0x40)\n      tag_76\n      swap2\n      swap1\n      tag_41\n      jump\t// in\n    tag_76:\n      mload(0x40)\n      dup1\n      swap2\n      sub\n      swap1\n      log1\n        /* \"contracts/PaymentContract.sol\":2166:2424  function setGameTokenAddress(address _gameTokenAddress) external onlyOwner {... */\n      pop\n      jump\t// out\n        /* \"contracts/PaymentContract.sol\":1349:1858  function withdrawAVAX(uint256 amountInAVAX) external onlyOwner {... */\n    tag_51:\n        /* \"@openzeppelin/contracts/access/Ownable.sol\":1531:1544  _checkOwner() */\n      tag_78\n        /* \"@openzeppelin/contracts/access/Ownable.sol\":1531:1542  _checkOwner */\n      tag_65\n        /* \"@openzeppelin/contracts/access/Ownable.sol\":1531:1544  _checkOwner() */\n      jump\t// in\n    tag_78:\n        /* \"contracts/PaymentContract.sol\":1422:1441  uint256 amountInWei */\n      0x00\n        /* \"contracts/PaymentContract.sol\":1459:1466  1 ether */\n      0x0de0b6b3a7640000\n        /* \"contracts/PaymentContract.sol\":1444:1456  amountInAVAX */\n      dup3\n        /* \"contracts/PaymentContract.sol\":1444:1466  amountInAVAX * 1 ether */\n      tag_80\n      swap2\n      swap1\n      tag_17\n      jump\t// in\n    tag_80:\n        /* \"contracts/PaymentContract.sol\":1422:1466  uint256 amountInWei = amountInAVAX * 1 ether */\n      swap1\n      pop\n        /* \"contracts/PaymentContract.sol\":1499:1514  uint256 balance */\n      0x00\n        /* \"contracts/PaymentContract.sol\":1517:1538  address(this).balance */\n      selfbalance\n        /* \"contracts/PaymentContract.sol\":1499:1538  uint256 balance = address(this).balance */\n      swap1\n      pop\n        /* \"contracts/PaymentContract.sol\":1580:1591  amountInWei */\n      dup2\n        /* \"contracts/PaymentContract.sol\":1569:1576  balance */\n      dup2\n        /* \"contracts/PaymentContract.sol\":1569:1591  balance >= amountInWei */\n      lt\n      iszero\n        /* \"contracts/PaymentContract.sol\":1548:1656  require(... */\n      tag_81\n      jumpi\n      mload(0x40)\n      0x08c379a000000000000000000000000000000000000000000000000000000000\n      dup2\n      mstore\n      0x04\n      add\n      tag_82\n      swap1\n      tag_83\n      jump\t// in\n    tag_82:\n      mload(0x40)\n      dup1\n      swap2\n      sub\n      swap1\n      revert\n    tag_81:\n        /* \"contracts/PaymentContract.sol\":1729:1736  owner() */\n      tag_84\n        /* \"contracts/PaymentContract.sol\":1729:1734  owner */\n      tag_39\n        /* \"contracts/PaymentContract.sol\":1729:1736  owner() */\n      jump\t// in\n    tag_84:\n        /* \"contracts/PaymentContract.sol\":1721:1746  payable(owner()).transfer */\n      0xffffffffffffffffffffffffffffffffffffffff\n      and\n        /* \"contracts/PaymentContract.sol\":1721:1759  payable(owner()).transfer(amountInWei) */\n      0x08fc\n        /* \"contracts/PaymentContract.sol\":1747:1758  amountInWei */\n      dup4\n        /* \"contracts/PaymentContract.sol\":1721:1759  payable(owner()).transfer(amountInWei) */\n      swap1\n      dup2\n      iszero\n      mul\n      swap1\n      mload(0x40)\n      0x00\n      mload(0x40)\n      dup1\n      dup4\n      sub\n      dup2\n      dup6\n      dup9\n      dup9\n      call\n      swap4\n      pop\n      pop\n      pop\n      pop\n      iszero\n      dup1\n      iszero\n      tag_86\n      jumpi\n      returndatacopy(0x00, 0x00, returndatasize)\n      revert(0x00, returndatasize)\n    tag_86:\n      pop\n        /* \"contracts/PaymentContract.sol\":1830:1837  owner() */\n      tag_87\n        /* \"contracts/PaymentContract.sol\":1830:1835  owner */\n      tag_39\n        /* \"contracts/PaymentContract.sol\":1830:1837  owner() */\n      jump\t// in\n    tag_87:\n        /* \"contracts/PaymentContract.sol\":1816:1851  AVAXWithdrawn(owner(), amountInWei) */\n      0xffffffffffffffffffffffffffffffffffffffff\n      and\n      0x992adad2762542d8fdfd4533fad14b8033ba24139e2f78dc7100711afff24671\n        /* \"contracts/PaymentContract.sol\":1839:1850  amountInWei */\n      dup4\n        /* \"contracts/PaymentContract.sol\":1816:1851  AVAXWithdrawn(owner(), amountInWei) */\n      mload(0x40)\n      tag_88\n      swap2\n      swap1\n      tag_29\n      jump\t// in\n    tag_88:\n      mload(0x40)\n      dup1\n      swap2\n      sub\n      swap1\n      log2\n        /* \"contracts/PaymentContract.sol\":1412:1858  {... */\n      pop\n      pop\n        /* \"contracts/PaymentContract.sol\":1349:1858  function withdrawAVAX(uint256 amountInAVAX) external onlyOwner {... */\n      pop\n      jump\t// out\n        /* \"contracts/PaymentContract.sol\":180:206  GameToken public gameToken */\n    tag_54:\n      0x01\n      0x00\n      swap1\n      sload\n      swap1\n      0x0100\n      exp\n      swap1\n      div\n      0xffffffffffffffffffffffffffffffffffffffff\n      and\n      dup2\n      jump\t// out\n        /* \"@openzeppelin/contracts/access/Ownable.sol\":2543:2758  function transferOwnership(address newOwner) public virtual onlyOwner {... */\n    tag_60:\n        /* \"@openzeppelin/contracts/access/Ownable.sol\":1531:1544  _checkOwner() */\n      tag_90\n        /* \"@openzeppelin/contracts/access/Ownable.sol\":1531:1542  _checkOwner */\n      tag_65\n        /* \"@openzeppelin/contracts/access/Ownable.sol\":1531:1544  _checkOwner() */\n      jump\t// in\n    tag_90:\n        /* \"@openzeppelin/contracts/access/Ownable.sol\":2647:2648  0 */\n      0x00\n        /* \"@openzeppelin/contracts/access/Ownable.sol\":2627:2649  newOwner == address(0) */\n      0xffffffffffffffffffffffffffffffffffffffff\n      and\n        /* \"@openzeppelin/contracts/access/Ownable.sol\":2627:2635  newOwner */\n      dup2\n        /* \"@openzeppelin/contracts/access/Ownable.sol\":2627:2649  newOwner == address(0) */\n      0xffffffffffffffffffffffffffffffffffffffff\n      and\n      sub\n        /* \"@openzeppelin/contracts/access/Ownable.sol\":2623:2714  if (newOwner == address(0)) {... */\n      tag_92\n      jumpi\n        /* \"@openzeppelin/contracts/access/Ownable.sol\":2700:2701  0 */\n      0x00\n        /* \"@openzeppelin/contracts/access/Ownable.sol\":2672:2703  OwnableInvalidOwner(address(0)) */\n      mload(0x40)\n      0x1e4fbdf700000000000000000000000000000000000000000000000000000000\n      dup2\n      mstore\n      0x04\n      add\n      tag_93\n      swap2\n      swap1\n      tag_41\n      jump\t// in\n    tag_93:\n      mload(0x40)\n      dup1\n      swap2\n      sub\n      swap1\n      revert\n        /* \"@openzeppelin/contracts/access/Ownable.sol\":2623:2714  if (newOwner == address(0)) {... */\n    tag_92:\n        /* \"@openzeppelin/contracts/access/Ownable.sol\":2723:2751  _transferOwnership(newOwner) */\n      tag_94\n        /* \"@openzeppelin/contracts/access/Ownable.sol\":2742:2750  newOwner */\n      dup2\n        /* \"@openzeppelin/contracts/access/Ownable.sol\":2723:2741  _transferOwnership */\n      tag_68\n        /* \"@openzeppelin/contracts/access/Ownable.sol\":2723:2751  _transferOwnership(newOwner) */\n      jump\t// in\n    tag_94:\n        /* \"@openzeppelin/contracts/access/Ownable.sol\":2543:2758  function transferOwnership(address newOwner) public virtual onlyOwner {... */\n      pop\n      jump\t// out\n        /* \"@openzeppelin/contracts/access/Ownable.sol\":1796:1958  function _checkOwner() internal view virtual {... */\n    tag_65:\n        /* \"@openzeppelin/contracts/access/Ownable.sol\":1866:1878  _msgSender() */\n      tag_96\n        /* \"@openzeppelin/contracts/access/Ownable.sol\":1866:1876  _msgSender */\n      tag_97\n        /* \"@openzeppelin/contracts/access/Ownable.sol\":1866:1878  _msgSender() */\n      jump\t// in\n    tag_96:\n        /* \"@openzeppelin/contracts/access/Ownable.sol\":1855:1878  owner() != _msgSender() */\n      0xffffffffffffffffffffffffffffffffffffffff\n      and\n        /* \"@openzeppelin/contracts/access/Ownable.sol\":1855:1862  owner() */\n      tag_98\n        /* \"@openzeppelin/contracts/access/Ownable.sol\":1855:1860  owner */\n      tag_39\n        /* \"@openzeppelin/contracts/access/Ownable.sol\":1855:1862  owner() */\n      jump\t// in\n    tag_98:\n        /* \"@openzeppelin/contracts/access/Ownable.sol\":1855:1878  owner() != _msgSender() */\n      0xffffffffffffffffffffffffffffffffffffffff\n      and\n      eq\n        /* \"@openzeppelin/contracts/access/Ownable.sol\":1851:1952  if (owner() != _msgSender()) {... */\n      tag_99\n      jumpi\n        /* \"@openzeppelin/contracts/access/Ownable.sol\":1928:1940  _msgSender() */\n      tag_100\n        /* \"@openzeppelin/contracts/access/Ownable.sol\":1928:1938  _msgSender */\n      tag_97\n        /* \"@openzeppelin/contracts/access/Ownable.sol\":1928:1940  _msgSender() */\n      jump\t// in\n    tag_100:\n        /* \"@openzeppelin/contracts/access/Ownable.sol\":1901:1941  OwnableUnauthorizedAccount(_msgSender()) */\n      mload(0x40)\n      0x118cdaa700000000000000000000000000000000000000000000000000000000\n      dup2\n      mstore\n      0x04\n      add\n      tag_101\n      swap2\n      swap1\n      tag_41\n      jump\t// in\n    tag_101:\n      mload(0x40)\n      dup1\n      swap2\n      sub\n      swap1\n      revert\n        /* \"@openzeppelin/contracts/access/Ownable.sol\":1851:1952  if (owner() != _msgSender()) {... */\n    tag_99:\n        /* \"@openzeppelin/contracts/access/Ownable.sol\":1796:1958  function _checkOwner() internal view virtual {... */\n      jump\t// out\n        /* \"@openzeppelin/contracts/access/Ownable.sol\":2912:3099  function _transferOwnership(address newOwner) internal virtual {... */\n    tag_68:\n        /* \"@openzeppelin/contracts/access/Ownable.sol\":2985:3001  address oldOwner */\n      0x00\n        /* \"@openzeppelin/contracts/access/Ownable.sol\":3004:3010  _owner */\n      0x00\n      0x00\n      swap1\n      sload\n      swap1\n      0x0100\n      exp\n      swap1\n      div\n      0xffffffffffffffffffffffffffffffffffffffff\n      and\n        /* \"@openzeppelin/contracts/access/Ownable.sol\":2985:3010  address oldOwner = _owner */\n      swap1\n      pop\n        /* \"@openzeppelin/contracts/access/Ownable.sol\":3029:3037  newOwner */\n      dup2\n        /* \"@openzeppelin/contracts/access/Ownable.sol\":3020:3026  _owner */\n      0x00\n      0x00\n        /* \"@openzeppelin/contracts/access/Ownable.sol\":3020:3037  _owner = newOwner */\n      0x0100\n      exp\n      dup2\n      sload\n      dup2\n      0xffffffffffffffffffffffffffffffffffffffff\n      mul\n      not\n      and\n      swap1\n      dup4\n      0xffffffffffffffffffffffffffffffffffffffff\n      and\n      mul\n      or\n      swap1\n      sstore\n      pop\n        /* \"@openzeppelin/contracts/access/Ownable.sol\":3083:3091  newOwner */\n      dup2\n        /* \"@openzeppelin/contracts/access/Ownable.sol\":3052:3092  OwnershipTransferred(oldOwner, newOwner) */\n      0xffffffffffffffffffffffffffffffffffffffff\n      and\n        /* \"@openzeppelin/contracts/access/Ownable.sol\":3073:3081  oldOwner */\n      dup2\n        /* \"@openzeppelin/contracts/access/Ownable.sol\":3052:3092  OwnershipTransferred(oldOwner, newOwner) */\n      0xffffffffffffffffffffffffffffffffffffffff\n      and\n      0x8be0079c531659141344cd1fd0a4f28419497f9722a3daafe3b4186f6b6457e0\n      mload(0x40)\n      mload(0x40)\n      dup1\n      swap2\n      sub\n      swap1\n      log3\n        /* \"@openzeppelin/contracts/access/Ownable.sol\":2975:3099  {... */\n      pop\n        /* \"@openzeppelin/contracts/access/Ownable.sol\":2912:3099  function _transferOwnership(address newOwner) internal virtual {... */\n      pop\n      jump\t// out\n        /* \"@openzeppelin/contracts/utils/Context.sol\":656:752  function _msgSender() internal view virtual returns (address) {... */\n    tag_97:\n        /* \"@openzeppelin/contracts/utils/Context.sol\":709:716  address */\n      0x00\n        /* \"@openzeppelin/contracts/utils/Context.sol\":735:745  msg.sender */\n      caller\n        /* \"@openzeppelin/contracts/utils/Context.sol\":728:745  return msg.sender */\n      swap1\n      pop\n        /* \"@openzeppelin/contracts/utils/Context.sol\":656:752  function _msgSender() internal view virtual returns (address) {... */\n      swap1\n      jump\t// out\n        /* \"#utility.yul\":7:84   */\n    tag_104:\n        /* \"#utility.yul\":44:51   */\n      0x00\n        /* \"#utility.yul\":73:78   */\n      dup2\n        /* \"#utility.yul\":62:78   */\n      swap1\n      pop\n        /* \"#utility.yul\":7:84   */\n      swap2\n      swap1\n      pop\n      jump\t// out\n        /* \"#utility.yul\":90:270   */\n    tag_105:\n        /* \"#utility.yul\":138:215   */\n      0x4e487b7100000000000000000000000000000000000000000000000000000000\n        /* \"#utility.yul\":135:136   */\n      0x00\n        /* \"#utility.yul\":128:216   */\n      mstore\n        /* \"#utility.yul\":235:239   */\n      0x12\n        /* \"#utility.yul\":232:233   */\n      0x04\n        /* \"#utility.yul\":225:240   */\n      mstore\n        /* \"#utility.yul\":259:263   */\n      0x24\n        /* \"#utility.yul\":256:257   */\n      0x00\n        /* \"#utility.yul\":249:264   */\n      revert\n        /* \"#utility.yul\":276:456   */\n    tag_106:\n        /* \"#utility.yul\":324:401   */\n      0x4e487b7100000000000000000000000000000000000000000000000000000000\n        /* \"#utility.yul\":321:322   */\n      0x00\n        /* \"#utility.yul\":314:402   */\n      mstore\n        /* \"#utility.yul\":421:425   */\n      0x11\n        /* \"#utility.yul\":418:419   */\n      0x04\n        /* \"#utility.yul\":411:426   */\n      mstore\n        /* \"#utility.yul\":445:449   */\n      0x24\n        /* \"#utility.yul\":442:443   */\n      0x00\n        /* \"#utility.yul\":435:450   */\n      revert\n        /* \"#utility.yul\":462:647   */\n    tag_15:\n        /* \"#utility.yul\":502:503   */\n      0x00\n        /* \"#utility.yul\":519:539   */\n      tag_133\n        /* \"#utility.yul\":537:538   */\n      dup3\n        /* \"#utility.yul\":519:539   */\n      tag_104\n      jump\t// in\n    tag_133:\n        /* \"#utility.yul\":514:539   */\n      swap2\n      pop\n        /* \"#utility.yul\":553:573   */\n      tag_134\n        /* \"#utility.yul\":571:572   */\n      dup4\n        /* \"#utility.yul\":553:573   */\n      tag_104\n      jump\t// in\n    tag_134:\n        /* \"#utility.yul\":548:573   */\n      swap3\n      pop\n        /* \"#utility.yul\":592:593   */\n      dup3\n        /* \"#utility.yul\":582:617   */\n      tag_135\n      jumpi\n        /* \"#utility.yul\":597:615   */\n      tag_136\n      tag_105\n      jump\t// in\n    tag_136:\n        /* \"#utility.yul\":582:617   */\n    tag_135:\n        /* \"#utility.yul\":639:640   */\n      dup3\n        /* \"#utility.yul\":636:637   */\n      dup3\n        /* \"#utility.yul\":632:641   */\n      div\n        /* \"#utility.yul\":627:641   */\n      swap1\n      pop\n        /* \"#utility.yul\":462:647   */\n      swap3\n      swap2\n      pop\n      pop\n      jump\t// out\n        /* \"#utility.yul\":653:1063   */\n    tag_17:\n        /* \"#utility.yul\":693:700   */\n      0x00\n        /* \"#utility.yul\":716:736   */\n      tag_138\n        /* \"#utility.yul\":734:735   */\n      dup3\n        /* \"#utility.yul\":716:736   */\n      tag_104\n      jump\t// in\n    tag_138:\n        /* \"#utility.yul\":711:736   */\n      swap2\n      pop\n        /* \"#utility.yul\":750:770   */\n      tag_139\n        /* \"#utility.yul\":768:769   */\n      dup4\n        /* \"#utility.yul\":750:770   */\n      tag_104\n      jump\t// in\n    tag_139:\n        /* \"#utility.yul\":745:770   */\n      swap3\n      pop\n        /* \"#utility.yul\":805:806   */\n      dup3\n        /* \"#utility.yul\":802:803   */\n      dup3\n        /* \"#utility.yul\":798:807   */\n      mul\n        /* \"#utility.yul\":827:857   */\n      tag_140\n        /* \"#utility.yul\":845:856   */\n      dup2\n        /* \"#utility.yul\":827:857   */\n      tag_104\n      jump\t// in\n    tag_140:\n        /* \"#utility.yul\":816:857   */\n      swap2\n      pop\n        /* \"#utility.yul\":1006:1007   */\n      dup3\n        /* \"#utility.yul\":997:1004   */\n      dup3\n        /* \"#utility.yul\":993:1008   */\n      div\n        /* \"#utility.yul\":990:991   */\n      dup5\n        /* \"#utility.yul\":987:1009   */\n      eq\n        /* \"#utility.yul\":967:968   */\n      dup4\n        /* \"#utility.yul\":960:969   */\n      iszero\n        /* \"#utility.yul\":940:1023   */\n      or\n        /* \"#utility.yul\":917:1056   */\n      tag_141\n      jumpi\n        /* \"#utility.yul\":1036:1054   */\n      tag_142\n      tag_106\n      jump\t// in\n    tag_142:\n        /* \"#utility.yul\":917:1056   */\n    tag_141:\n        /* \"#utility.yul\":701:1063   */\n      pop\n        /* \"#utility.yul\":653:1063   */\n      swap3\n      swap2\n      pop\n      pop\n      jump\t// out\n        /* \"#utility.yul\":1069:1187   */\n    tag_107:\n        /* \"#utility.yul\":1156:1180   */\n      tag_144\n        /* \"#utility.yul\":1174:1179   */\n      dup2\n        /* \"#utility.yul\":1156:1180   */\n      tag_104\n      jump\t// in\n    tag_144:\n        /* \"#utility.yul\":1151:1154   */\n      dup3\n        /* \"#utility.yul\":1144:1181   */\n      mstore\n        /* \"#utility.yul\":1069:1187   */\n      pop\n      pop\n      jump\t// out\n        /* \"#utility.yul\":1193:1525   */\n    tag_19:\n        /* \"#utility.yul\":1314:1318   */\n      0x00\n        /* \"#utility.yul\":1352:1354   */\n      0x40\n        /* \"#utility.yul\":1341:1350   */\n      dup3\n        /* \"#utility.yul\":1337:1355   */\n      add\n        /* \"#utility.yul\":1329:1355   */\n      swap1\n      pop\n        /* \"#utility.yul\":1365:1436   */\n      tag_146\n        /* \"#utility.yul\":1433:1434   */\n      0x00\n        /* \"#utility.yul\":1422:1431   */\n      dup4\n        /* \"#utility.yul\":1418:1435   */\n      add\n        /* \"#utility.yul\":1409:1415   */\n      dup6\n        /* \"#utility.yul\":1365:1436   */\n      tag_107\n      jump\t// in\n    tag_146:\n        /* \"#utility.yul\":1446:1518   */\n      tag_147\n        /* \"#utility.yul\":1514:1516   */\n      0x20\n        /* \"#utility.yul\":1503:1512   */\n      dup4\n        /* \"#utility.yul\":1499:1517   */\n      add\n        /* \"#utility.yul\":1490:1496   */\n      dup5\n        /* \"#utility.yul\":1446:1518   */\n      tag_107\n      jump\t// in\n    tag_147:\n        /* \"#utility.yul\":1193:1525   */\n      swap4\n      swap3\n      pop\n      pop\n      pop\n      jump\t// out\n        /* \"#utility.yul\":1531:1657   */\n    tag_108:\n        /* \"#utility.yul\":1568:1575   */\n      0x00\n        /* \"#utility.yul\":1608:1650   */\n      0xffffffffffffffffffffffffffffffffffffffff\n        /* \"#utility.yul\":1601:1606   */\n      dup3\n        /* \"#utility.yul\":1597:1651   */\n      and\n        /* \"#utility.yul\":1586:1651   */\n      swap1\n      pop\n        /* \"#utility.yul\":1531:1657   */\n      swap2\n      swap1\n      pop\n      jump\t// out\n        /* \"#utility.yul\":1663:1759   */\n    tag_109:\n        /* \"#utility.yul\":1700:1707   */\n      0x00\n        /* \"#utility.yul\":1729:1753   */\n      tag_150\n        /* \"#utility.yul\":1747:1752   */\n      dup3\n        /* \"#utility.yul\":1729:1753   */\n      tag_108\n      jump\t// in\n    tag_150:\n        /* \"#utility.yul\":1718:1753   */\n      swap1\n      pop\n        /* \"#utility.yul\":1663:1759   */\n      swap2\n      swap1\n      pop\n      jump\t// out\n        /* \"#utility.yul\":1765:1883   */\n    tag_110:\n        /* \"#utility.yul\":1852:1876   */\n      tag_152\n        /* \"#utility.yul\":1870:1875   */\n      dup2\n        /* \"#utility.yul\":1852:1876   */\n      tag_109\n      jump\t// in\n    tag_152:\n        /* \"#utility.yul\":1847:1850   */\n      dup3\n        /* \"#utility.yul\":1840:1877   */\n      mstore\n        /* \"#utility.yul\":1765:1883   */\n      pop\n      pop\n      jump\t// out\n        /* \"#utility.yul\":1889:2221   */\n    tag_21:\n        /* \"#utility.yul\":2010:2014   */\n      0x00\n        /* \"#utility.yul\":2048:2050   */\n      0x40\n        /* \"#utility.yul\":2037:2046   */\n      dup3\n        /* \"#utility.yul\":2033:2051   */\n      add\n        /* \"#utility.yul\":2025:2051   */\n      swap1\n      pop\n        /* \"#utility.yul\":2061:2132   */\n      tag_154\n        /* \"#utility.yul\":2129:2130   */\n      0x00\n        /* \"#utility.yul\":2118:2127   */\n      dup4\n        /* \"#utility.yul\":2114:2131   */\n      add\n        /* \"#utility.yul\":2105:2111   */\n      dup6\n        /* \"#utility.yul\":2061:2132   */\n      tag_110\n      jump\t// in\n    tag_154:\n        /* \"#utility.yul\":2142:2214   */\n      tag_155\n        /* \"#utility.yul\":2210:2212   */\n      0x20\n        /* \"#utility.yul\":2199:2208   */\n      dup4\n        /* \"#utility.yul\":2195:2213   */\n      add\n        /* \"#utility.yul\":2186:2192   */\n      dup5\n        /* \"#utility.yul\":2142:2214   */\n      tag_107\n      jump\t// in\n    tag_155:\n        /* \"#utility.yul\":1889:2221   */\n      swap4\n      swap3\n      pop\n      pop\n      pop\n      jump\t// out\n        /* \"#utility.yul\":2227:2449   */\n    tag_29:\n        /* \"#utility.yul\":2320:2324   */\n      0x00\n        /* \"#utility.yul\":2358:2360   */\n      0x20\n        /* \"#utility.yul\":2347:2356   */\n      dup3\n        /* \"#utility.yul\":2343:2361   */\n      add\n        /* \"#utility.yul\":2335:2361   */\n      swap1\n      pop\n        /* \"#utility.yul\":2371:2442   */\n      tag_157\n        /* \"#utility.yul\":2439:2440   */\n      0x00\n        /* \"#utility.yul\":2428:2437   */\n      dup4\n        /* \"#utility.yul\":2424:2441   */\n      add\n        /* \"#utility.yul\":2415:2421   */\n      dup5\n        /* \"#utility.yul\":2371:2442   */\n      tag_107\n      jump\t// in\n    tag_157:\n        /* \"#utility.yul\":2227:2449   */\n      swap3\n      swap2\n      pop\n      pop\n      jump\t// out\n        /* \"#utility.yul\":2455:2677   */\n    tag_41:\n        /* \"#utility.yul\":2548:2552   */\n      0x00\n        /* \"#utility.yul\":2586:2588   */\n      0x20\n        /* \"#utility.yul\":2575:2584   */\n      dup3\n        /* \"#utility.yul\":2571:2589   */\n      add\n        /* \"#utility.yul\":2563:2589   */\n      swap1\n      pop\n        /* \"#utility.yul\":2599:2670   */\n      tag_159\n        /* \"#utility.yul\":2667:2668   */\n      0x00\n        /* \"#utility.yul\":2656:2665   */\n      dup4\n        /* \"#utility.yul\":2652:2669   */\n      add\n        /* \"#utility.yul\":2643:2649   */\n      dup5\n        /* \"#utility.yul\":2599:2670   */\n      tag_110\n      jump\t// in\n    tag_159:\n        /* \"#utility.yul\":2455:2677   */\n      swap3\n      swap2\n      pop\n      pop\n      jump\t// out\n        /* \"#utility.yul\":2764:2881   */\n    tag_112:\n        /* \"#utility.yul\":2873:2874   */\n      0x00\n        /* \"#utility.yul\":2870:2871   */\n      0x00\n        /* \"#utility.yul\":2863:2875   */\n      revert\n        /* \"#utility.yul\":3010:3132   */\n    tag_114:\n        /* \"#utility.yul\":3083:3107   */\n      tag_164\n        /* \"#utility.yul\":3101:3106   */\n      dup2\n        /* \"#utility.yul\":3083:3107   */\n      tag_109\n      jump\t// in\n    tag_164:\n        /* \"#utility.yul\":3076:3081   */\n      dup2\n        /* \"#utility.yul\":3073:3108   */\n      eq\n        /* \"#utility.yul\":3063:3126   */\n      tag_165\n      jumpi\n        /* \"#utility.yul\":3122:3123   */\n      0x00\n        /* \"#utility.yul\":3119:3120   */\n      0x00\n        /* \"#utility.yul\":3112:3124   */\n      revert\n        /* \"#utility.yul\":3063:3126   */\n    tag_165:\n        /* \"#utility.yul\":3010:3132   */\n      pop\n      jump\t// out\n        /* \"#utility.yul\":3138:3277   */\n    tag_115:\n        /* \"#utility.yul\":3184:3189   */\n      0x00\n        /* \"#utility.yul\":3222:3228   */\n      dup2\n        /* \"#utility.yul\":3209:3229   */\n      calldataload\n        /* \"#utility.yul\":3200:3229   */\n      swap1\n      pop\n        /* \"#utility.yul\":3238:3271   */\n      tag_167\n        /* \"#utility.yul\":3265:3270   */\n      dup2\n        /* \"#utility.yul\":3238:3271   */\n      tag_114\n      jump\t// in\n    tag_167:\n        /* \"#utility.yul\":3138:3277   */\n      swap3\n      swap2\n      pop\n      pop\n      jump\t// out\n        /* \"#utility.yul\":3283:3612   */\n    tag_45:\n        /* \"#utility.yul\":3342:3348   */\n      0x00\n        /* \"#utility.yul\":3391:3393   */\n      0x20\n        /* \"#utility.yul\":3379:3388   */\n      dup3\n        /* \"#utility.yul\":3370:3377   */\n      dup5\n        /* \"#utility.yul\":3366:3389   */\n      sub\n        /* \"#utility.yul\":3362:3394   */\n      slt\n        /* \"#utility.yul\":3359:3478   */\n      iszero\n      tag_169\n      jumpi\n        /* \"#utility.yul\":3397:3476   */\n      tag_170\n      tag_112\n      jump\t// in\n    tag_170:\n        /* \"#utility.yul\":3359:3478   */\n    tag_169:\n        /* \"#utility.yul\":3517:3518   */\n      0x00\n        /* \"#utility.yul\":3542:3595   */\n      tag_171\n        /* \"#utility.yul\":3587:3594   */\n      dup5\n        /* \"#utility.yul\":3578:3584   */\n      dup3\n        /* \"#utility.yul\":3567:3576   */\n      dup6\n        /* \"#utility.yul\":3563:3585   */\n      add\n        /* \"#utility.yul\":3542:3595   */\n      tag_115\n      jump\t// in\n    tag_171:\n        /* \"#utility.yul\":3532:3595   */\n      swap2\n      pop\n        /* \"#utility.yul\":3488:3605   */\n      pop\n        /* \"#utility.yul\":3283:3612   */\n      swap3\n      swap2\n      pop\n      pop\n      jump\t// out\n        /* \"#utility.yul\":3618:3740   */\n    tag_116:\n        /* \"#utility.yul\":3691:3715   */\n      tag_173\n        /* \"#utility.yul\":3709:3714   */\n      dup2\n        /* \"#utility.yul\":3691:3715   */\n      tag_104\n      jump\t// in\n    tag_173:\n        /* \"#utility.yul\":3684:3689   */\n      dup2\n        /* \"#utility.yul\":3681:3716   */\n      eq\n        /* \"#utility.yul\":3671:3734   */\n      tag_174\n      jumpi\n        /* \"#utility.yul\":3730:3731   */\n      0x00\n        /* \"#utility.yul\":3727:3728   */\n      0x00\n        /* \"#utility.yul\":3720:3732   */\n      revert\n        /* \"#utility.yul\":3671:3734   */\n    tag_174:\n        /* \"#utility.yul\":3618:3740   */\n      pop\n      jump\t// out\n        /* \"#utility.yul\":3746:3885   */\n    tag_117:\n        /* \"#utility.yul\":3792:3797   */\n      0x00\n        /* \"#utility.yul\":3830:3836   */\n      dup2\n        /* \"#utility.yul\":3817:3837   */\n      calldataload\n        /* \"#utility.yul\":3808:3837   */\n      swap1\n      pop\n        /* \"#utility.yul\":3846:3879   */\n      tag_176\n        /* \"#utility.yul\":3873:3878   */\n      dup2\n        /* \"#utility.yul\":3846:3879   */\n      tag_116\n      jump\t// in\n    tag_176:\n        /* \"#utility.yul\":3746:3885   */\n      swap3\n      swap2\n      pop\n      pop\n      jump\t// out\n        /* \"#utility.yul\":3891:4220   */\n    tag_50:\n        /* \"#utility.yul\":3950:3956   */\n      0x00\n        /* \"#utility.yul\":3999:4001   */\n      0x20\n        /* \"#utility.yul\":3987:3996   */\n      dup3\n        /* \"#utility.yul\":3978:3985   */\n      dup5\n        /* \"#utility.yul\":3974:3997   */\n      sub\n        /* \"#utility.yul\":3970:4002   */\n      slt\n        /* \"#utility.yul\":3967:4086   */\n      iszero\n      tag_178\n      jumpi\n        /* \"#utility.yul\":4005:4084   */\n      tag_179\n      tag_112\n      jump\t// in\n    tag_179:\n        /* \"#utility.yul\":3967:4086   */\n    tag_178:\n        /* \"#utility.yul\":4125:4126   */\n      0x00\n        /* \"#utility.yul\":4150:4203   */\n      tag_180\n        /* \"#utility.yul\":4195:4202   */\n      dup5\n        /* \"#utility.yul\":4186:4192   */\n      dup3\n        /* \"#utility.yul\":4175:4184   */\n      dup6\n        /* \"#utility.yul\":4171:4193   */\n      add\n        /* \"#utility.yul\":4150:4203   */\n      tag_117\n      jump\t// in\n    tag_180:\n        /* \"#utility.yul\":4140:4203   */\n      swap2\n      pop\n        /* \"#utility.yul\":4096:4213   */\n      pop\n        /* \"#utility.yul\":3891:4220   */\n      swap3\n      swap2\n      pop\n      pop\n      jump\t// out\n        /* \"#utility.yul\":4226:4286   */\n    tag_118:\n        /* \"#utility.yul\":4254:4257   */\n      0x00\n        /* \"#utility.yul\":4275:4280   */\n      dup2\n        /* \"#utility.yul\":4268:4280   */\n      swap1\n      pop\n        /* \"#utility.yul\":4226:4286   */\n      swap2\n      swap1\n      pop\n      jump\t// out\n        /* \"#utility.yul\":4292:4434   */\n    tag_119:\n        /* \"#utility.yul\":4342:4351   */\n      0x00\n        /* \"#utility.yul\":4375:4428   */\n      tag_183\n        /* \"#utility.yul\":4393:4427   */\n      tag_184\n        /* \"#utility.yul\":4402:4426   */\n      tag_185\n        /* \"#utility.yul\":4420:4425   */\n      dup5\n        /* \"#utility.yul\":4402:4426   */\n      tag_108\n      jump\t// in\n    tag_185:\n        /* \"#utility.yul\":4393:4427   */\n      tag_118\n      jump\t// in\n    tag_184:\n        /* \"#utility.yul\":4375:4428   */\n      tag_108\n      jump\t// in\n    tag_183:\n        /* \"#utility.yul\":4362:4428   */\n      swap1\n      pop\n        /* \"#utility.yul\":4292:4434   */\n      swap2\n      swap1\n      pop\n      jump\t// out\n        /* \"#utility.yul\":4440:4566   */\n    tag_120:\n        /* \"#utility.yul\":4490:4499   */\n      0x00\n        /* \"#utility.yul\":4523:4560   */\n      tag_187\n        /* \"#utility.yul\":4554:4559   */\n      dup3\n        /* \"#utility.yul\":4523:4560   */\n      tag_119\n      jump\t// in\n    tag_187:\n        /* \"#utility.yul\":4510:4560   */\n      swap1\n      pop\n        /* \"#utility.yul\":4440:4566   */\n      swap2\n      swap1\n      pop\n      jump\t// out\n        /* \"#utility.yul\":4572:4716   */\n    tag_121:\n        /* \"#utility.yul\":4640:4649   */\n      0x00\n        /* \"#utility.yul\":4673:4710   */\n      tag_189\n        /* \"#utility.yul\":4704:4709   */\n      dup3\n        /* \"#utility.yul\":4673:4710   */\n      tag_120\n      jump\t// in\n    tag_189:\n        /* \"#utility.yul\":4660:4710   */\n      swap1\n      pop\n        /* \"#utility.yul\":4572:4716   */\n      swap2\n      swap1\n      pop\n      jump\t// out\n        /* \"#utility.yul\":4722:4889   */\n    tag_122:\n        /* \"#utility.yul\":4827:4882   */\n      tag_191\n        /* \"#utility.yul\":4876:4881   */\n      dup2\n        /* \"#utility.yul\":4827:4882   */\n      tag_121\n      jump\t// in\n    tag_191:\n        /* \"#utility.yul\":4822:4825   */\n      dup3\n        /* \"#utility.yul\":4815:4883   */\n      mstore\n        /* \"#utility.yul\":4722:4889   */\n      pop\n      pop\n      jump\t// out\n        /* \"#utility.yul\":4895:5153   */\n    tag_56:\n        /* \"#utility.yul\":5006:5010   */\n      0x00\n        /* \"#utility.yul\":5044:5046   */\n      0x20\n        /* \"#utility.yul\":5033:5042   */\n      dup3\n        /* \"#utility.yul\":5029:5047   */\n      add\n        /* \"#utility.yul\":5021:5047   */\n      swap1\n      pop\n        /* \"#utility.yul\":5057:5146   */\n      tag_193\n        /* \"#utility.yul\":5143:5144   */\n      0x00\n        /* \"#utility.yul\":5132:5141   */\n      dup4\n        /* \"#utility.yul\":5128:5145   */\n      add\n        /* \"#utility.yul\":5119:5125   */\n      dup5\n        /* \"#utility.yul\":5057:5146   */\n      tag_122\n      jump\t// in\n    tag_193:\n        /* \"#utility.yul\":4895:5153   */\n      swap3\n      swap2\n      pop\n      pop\n      jump\t// out\n        /* \"#utility.yul\":5159:5328   */\n    tag_123:\n        /* \"#utility.yul\":5243:5254   */\n      0x00\n        /* \"#utility.yul\":5277:5283   */\n      dup3\n        /* \"#utility.yul\":5272:5275   */\n      dup3\n        /* \"#utility.yul\":5265:5284   */\n      mstore\n        /* \"#utility.yul\":5317:5321   */\n      0x20\n        /* \"#utility.yul\":5312:5315   */\n      dup3\n        /* \"#utility.yul\":5308:5322   */\n      add\n        /* \"#utility.yul\":5293:5322   */\n      swap1\n      pop\n        /* \"#utility.yul\":5159:5328   */\n      swap3\n      swap2\n      pop\n      pop\n      jump\t// out\n        /* \"#utility.yul\":5334:5499   */\n    tag_124:\n        /* \"#utility.yul\":5474:5491   */\n      0x496e76616c696420616464726573730000000000000000000000000000000000\n        /* \"#utility.yul\":5470:5471   */\n      0x00\n        /* \"#utility.yul\":5462:5468   */\n      dup3\n        /* \"#utility.yul\":5458:5472   */\n      add\n        /* \"#utility.yul\":5451:5492   */\n      mstore\n        /* \"#utility.yul\":5334:5499   */\n      pop\n      jump\t// out\n        /* \"#utility.yul\":5505:5871   */\n    tag_125:\n        /* \"#utility.yul\":5647:5650   */\n      0x00\n        /* \"#utility.yul\":5668:5735   */\n      tag_197\n        /* \"#utility.yul\":5732:5734   */\n      0x0f\n        /* \"#utility.yul\":5727:5730   */\n      dup4\n        /* \"#utility.yul\":5668:5735   */\n      tag_123\n      jump\t// in\n    tag_197:\n        /* \"#utility.yul\":5661:5735   */\n      swap2\n      pop\n        /* \"#utility.yul\":5744:5837   */\n      tag_198\n        /* \"#utility.yul\":5833:5836   */\n      dup3\n        /* \"#utility.yul\":5744:5837   */\n      tag_124\n      jump\t// in\n    tag_198:\n        /* \"#utility.yul\":5862:5864   */\n      0x20\n        /* \"#utility.yul\":5857:5860   */\n      dup3\n        /* \"#utility.yul\":5853:5865   */\n      add\n        /* \"#utility.yul\":5846:5865   */\n      swap1\n      pop\n        /* \"#utility.yul\":5505:5871   */\n      swap2\n      swap1\n      pop\n      jump\t// out\n        /* \"#utility.yul\":5877:6296   */\n    tag_75:\n        /* \"#utility.yul\":6043:6047   */\n      0x00\n        /* \"#utility.yul\":6081:6083   */\n      0x20\n        /* \"#utility.yul\":6070:6079   */\n      dup3\n        /* \"#utility.yul\":6066:6084   */\n      add\n        /* \"#utility.yul\":6058:6084   */\n      swap1\n      pop\n        /* \"#utility.yul\":6130:6139   */\n      dup2\n        /* \"#utility.yul\":6124:6128   */\n      dup2\n        /* \"#utility.yul\":6120:6140   */\n      sub\n        /* \"#utility.yul\":6116:6117   */\n      0x00\n        /* \"#utility.yul\":6105:6114   */\n      dup4\n        /* \"#utility.yul\":6101:6118   */\n      add\n        /* \"#utility.yul\":6094:6141   */\n      mstore\n        /* \"#utility.yul\":6158:6289   */\n      tag_200\n        /* \"#utility.yul\":6284:6288   */\n      dup2\n        /* \"#utility.yul\":6158:6289   */\n      tag_125\n      jump\t// in\n    tag_200:\n        /* \"#utility.yul\":6150:6289   */\n      swap1\n      pop\n        /* \"#utility.yul\":5877:6296   */\n      swap2\n      swap1\n      pop\n      jump\t// out\n        /* \"#utility.yul\":6302:6528   */\n    tag_126:\n        /* \"#utility.yul\":6442:6476   */\n      0x4e6f7420656e6f756768204156415820696e20636f6e747261637420746f2077\n        /* \"#utility.yul\":6438:6439   */\n      0x00\n        /* \"#utility.yul\":6430:6436   */\n      dup3\n        /* \"#utility.yul\":6426:6440   */\n      add\n        /* \"#utility.yul\":6419:6477   */\n      mstore\n        /* \"#utility.yul\":6511:6520   */\n      0x6974686472617700000000000000000000000000000000000000000000000000\n        /* \"#utility.yul\":6506:6508   */\n      0x20\n        /* \"#utility.yul\":6498:6504   */\n      dup3\n        /* \"#utility.yul\":6494:6509   */\n      add\n        /* \"#utility.yul\":6487:6521   */\n      mstore\n        /* \"#utility.yul\":6302:6528   */\n      pop\n      jump\t// out\n        /* \"#utility.yul\":6534:6900   */\n    tag_127:\n        /* \"#utility.yul\":6676:6679   */\n      0x00\n        /* \"#utility.yul\":6697:6764   */\n      tag_203\n        /* \"#utility.yul\":6761:6763   */\n      0x27\n        /* \"#utility.yul\":6756:6759   */\n      dup4\n        /* \"#utility.yul\":6697:6764   */\n      tag_123\n      jump\t// in\n    tag_203:\n        /* \"#utility.yul\":6690:6764   */\n      swap2\n      pop\n        /* \"#utility.yul\":6773:6866   */\n      tag_204\n        /* \"#utility.yul\":6862:6865   */\n      dup3\n        /* \"#utility.yul\":6773:6866   */\n      tag_126\n      jump\t// in\n    tag_204:\n        /* \"#utility.yul\":6891:6893   */\n      0x40\n        /* \"#utility.yul\":6886:6889   */\n      dup3\n        /* \"#utility.yul\":6882:6894   */\n      add\n        /* \"#utility.yul\":6875:6894   */\n      swap1\n      pop\n        /* \"#utility.yul\":6534:6900   */\n      swap2\n      swap1\n      pop\n      jump\t// out\n        /* \"#utility.yul\":6906:7325   */\n    tag_83:\n        /* \"#utility.yul\":7072:7076   */\n      0x00\n        /* \"#utility.yul\":7110:7112   */\n      0x20\n        /* \"#utility.yul\":7099:7108   */\n      dup3\n        /* \"#utility.yul\":7095:7113   */\n      add\n        /* \"#utility.yul\":7087:7113   */\n      swap1\n      pop\n        /* \"#utility.yul\":7159:7168   */\n      dup2\n        /* \"#utility.yul\":7153:7157   */\n      dup2\n        /* \"#utility.yul\":7149:7169   */\n      sub\n        /* \"#utility.yul\":7145:7146   */\n      0x00\n        /* \"#utility.yul\":7134:7143   */\n      dup4\n        /* \"#utility.yul\":7130:7147   */\n      add\n        /* \"#utility.yul\":7123:7170   */\n      mstore\n        /* \"#utility.yul\":7187:7318   */\n      tag_206\n        /* \"#utility.yul\":7313:7317   */\n      dup2\n        /* \"#utility.yul\":7187:7318   */\n      tag_127\n      jump\t// in\n    tag_206:\n        /* \"#utility.yul\":7179:7318   */\n      swap1\n      pop\n        /* \"#utility.yul\":6906:7325   */\n      swap2\n      swap1\n      pop\n      jump\t// out\n\n    auxdata: 0xa264697066735822122056482b8cb7619ec32311facc837b7184c8b51f74e7a12f577b1e99c5cc79862964736f6c634300081c0033\n}\n",
				"bytecode": {
					"linkReferences": {},
					"object": "608060405260028055348015610013575f5ffd5b50604051610d84380380610d848339818101604052810190610035919061021b565b335f73ffffffffffffffffffffffffffffffffffffffff168173ffffffffffffffffffffffffffffffffffffffff16036100a6575f6040517f1e4fbdf700000000000000000000000000000000000000000000000000000000815260040161009d9190610255565b60405180910390fd5b6100b5816100fc60201b60201c565b508060015f6101000a81548173ffffffffffffffffffffffffffffffffffffffff021916908373ffffffffffffffffffffffffffffffffffffffff1602179055505061026e565b5f5f5f9054906101000a900473ffffffffffffffffffffffffffffffffffffffff169050815f5f6101000a81548173ffffffffffffffffffffffffffffffffffffffff021916908373ffffffffffffffffffffffffffffffffffffffff1602179055508173ffffffffffffffffffffffffffffffffffffffff168173ffffffffffffffffffffffffffffffffffffffff167f8be0079c531659141344cd1fd0a4f28419497f9722a3daafe3b4186f6b6457e060405160405180910390a35050565b5f5ffd5b5f73ffffffffffffffffffffffffffffffffffffffff82169050919050565b5f6101ea826101c1565b9050919050565b6101fa816101e0565b8114610204575f5ffd5b50565b5f81519050610215816101f1565b92915050565b5f602082840312156102305761022f6101bd565b5b5f61023d84828501610207565b91505092915050565b61024f816101e0565b82525050565b5f6020820190506102685f830184610246565b92915050565b610b098061027b5f395ff3fe60806040526004361061007e575f3560e01c80639ff933d11161004d5780639ff933d11461021a578063aeb5cd5e14610242578063c3dfdae61461026a578063f2fde38b1461029457610182565b806312065fe01461018657806331711884146101b0578063715018a6146101da5780638da5cb5b146101f057610182565b36610182575f3490505f600254670de0b6b3a76400008361009f919061076c565b6100a9919061079c565b90503373ffffffffffffffffffffffffffffffffffffffff167f8fafebcaf9d154343dad25669bfa277f4fbacd7ac6b0c4fed522580e040a0f3383836040516100f39291906107ec565b60405180910390a260015f9054906101000a900473ffffffffffffffffffffffffffffffffffffffff1673ffffffffffffffffffffffffffffffffffffffff166340c10f1933836040518363ffffffff1660e01b8152600401610157929190610852565b5f604051808303815f87803b15801561016e575f5ffd5b505af1158015610180573d5f5f3e3d5ffd5b005b5f5ffd5b348015610191575f5ffd5b5061019a6102bc565b6040516101a79190610879565b60405180910390f35b3480156101bb575f5ffd5b506101c46102d6565b6040516101d19190610879565b60405180910390f35b3480156101e5575f5ffd5b506101ee6102dc565b005b3480156101fb575f5ffd5b506102046102ef565b6040516102119190610892565b60405180910390f35b348015610225575f5ffd5b50610240600480360381019061023b91906108d9565b610316565b005b34801561024d575f5ffd5b506102686004803603810190610263919061092e565b610406565b005b348015610275575f5ffd5b5061027e610511565b60405161028b91906109b4565b60405180910390f35b34801561029f575f5ffd5b506102ba60048036038101906102b591906108d9565b610536565b005b5f670de0b6b3a7640000476102d1919061076c565b905090565b60025481565b6102e46105ba565b6102ed5f610641565b565b5f5f5f9054906101000a900473ffffffffffffffffffffffffffffffffffffffff16905090565b61031e6105ba565b5f73ffffffffffffffffffffffffffffffffffffffff168173ffffffffffffffffffffffffffffffffffffffff160361038c576040517f08c379a000000000000000000000000000000000000000000000000000000000815260040161038390610a27565b60405180910390fd5b8060015f6101000a81548173ffffffffffffffffffffffffffffffffffffffff021916908373ffffffffffffffffffffffffffffffffffffffff1602179055507f4a0158ab28822bd17e87082f66e7c12ca4a26d09a62505945c8767f2bda52a82816040516103fb9190610892565b60405180910390a150565b61040e6105ba565b5f670de0b6b3a764000082610423919061079c565b90505f4790508181101561046c576040517f08c379a000000000000000000000000000000000000000000000000000000000815260040161046390610ab5565b60405180910390fd5b6104746102ef565b73ffffffffffffffffffffffffffffffffffffffff166108fc8390811502906040515f60405180830381858888f193505050501580156104b6573d5f5f3e3d5ffd5b506104bf6102ef565b73ffffffffffffffffffffffffffffffffffffffff167f992adad2762542d8fdfd4533fad14b8033ba24139e2f78dc7100711afff24671836040516105049190610879565b60405180910390a2505050565b60015f9054906101000a900473ffffffffffffffffffffffffffffffffffffffff1681565b61053e6105ba565b5f73ffffffffffffffffffffffffffffffffffffffff168173ffffffffffffffffffffffffffffffffffffffff16036105ae575f6040517f1e4fbdf70000000000000000000000000000000000000000000000000000000081526004016105a59190610892565b60405180910390fd5b6105b781610641565b50565b6105c2610702565b73ffffffffffffffffffffffffffffffffffffffff166105e06102ef565b73ffffffffffffffffffffffffffffffffffffffff161461063f57610603610702565b6040517f118cdaa70000000000000000000000000000000000000000000000000000000081526004016106369190610892565b60405180910390fd5b565b5f5f5f9054906101000a900473ffffffffffffffffffffffffffffffffffffffff169050815f5f6101000a81548173ffffffffffffffffffffffffffffffffffffffff021916908373ffffffffffffffffffffffffffffffffffffffff1602179055508173ffffffffffffffffffffffffffffffffffffffff168173ffffffffffffffffffffffffffffffffffffffff167f8be0079c531659141344cd1fd0a4f28419497f9722a3daafe3b4186f6b6457e060405160405180910390a35050565b5f33905090565b5f819050919050565b7f4e487b71000000000000000000000000000000000000000000000000000000005f52601260045260245ffd5b7f4e487b71000000000000000000000000000000000000000000000000000000005f52601160045260245ffd5b5f61077682610709565b915061078183610709565b92508261079157610790610712565b5b828204905092915050565b5f6107a682610709565b91506107b183610709565b92508282026107bf81610709565b915082820484148315176107d6576107d561073f565b5b5092915050565b6107e681610709565b82525050565b5f6040820190506107ff5f8301856107dd565b61080c60208301846107dd565b9392505050565b5f73ffffffffffffffffffffffffffffffffffffffff82169050919050565b5f61083c82610813565b9050919050565b61084c81610832565b82525050565b5f6040820190506108655f830185610843565b61087260208301846107dd565b9392505050565b5f60208201905061088c5f8301846107dd565b92915050565b5f6020820190506108a55f830184610843565b92915050565b5f5ffd5b6108b881610832565b81146108c2575f5ffd5b50565b5f813590506108d3816108af565b92915050565b5f602082840312156108ee576108ed6108ab565b5b5f6108fb848285016108c5565b91505092915050565b61090d81610709565b8114610917575f5ffd5b50565b5f8135905061092881610904565b92915050565b5f60208284031215610943576109426108ab565b5b5f6109508482850161091a565b91505092915050565b5f819050919050565b5f61097c61097761097284610813565b610959565b610813565b9050919050565b5f61098d82610962565b9050919050565b5f61099e82610983565b9050919050565b6109ae81610994565b82525050565b5f6020820190506109c75f8301846109a5565b92915050565b5f82825260208201905092915050565b7f496e76616c6964206164647265737300000000000000000000000000000000005f82015250565b5f610a11600f836109cd565b9150610a1c826109dd565b602082019050919050565b5f6020820190508181035f830152610a3e81610a05565b9050919050565b7f4e6f7420656e6f756768204156415820696e20636f6e747261637420746f20775f8201527f6974686472617700000000000000000000000000000000000000000000000000602082015250565b5f610a9f6027836109cd565b9150610aaa82610a45565b604082019050919050565b5f6020820190508181035f830152610acc81610a93565b905091905056fea264697066735822122056482b8cb7619ec32311facc837b7184c8b51f74e7a12f577b1e99c5cc79862964736f6c634300081c0033",
					"opcodes": "PUSH1 0x80 PUSH1 0x40 MSTORE PUSH1 0x2 DUP1 SSTORE CALLVALUE DUP1 ISZERO PUSH2 0x13 JUMPI PUSH0 PUSH0 REVERT JUMPDEST POP PUSH1 0x40 MLOAD PUSH2 0xD84 CODESIZE SUB DUP1 PUSH2 0xD84 DUP4 CODECOPY DUP2 DUP2 ADD PUSH1 0x40 MSTORE DUP2 ADD SWAP1 PUSH2 0x35 SWAP2 SWAP1 PUSH2 0x21B JUMP JUMPDEST CALLER PUSH0 PUSH20 0xFFFFFFFFFFFFFFFFFFFFFFFFFFFFFFFFFFFFFFFF AND DUP2 PUSH20 0xFFFFFFFFFFFFFFFFFFFFFFFFFFFFFFFFFFFFFFFF AND SUB PUSH2 0xA6 JUMPI PUSH0 PUSH1 0x40 MLOAD PUSH32 0x1E4FBDF700000000000000000000000000000000000000000000000000000000 DUP2 MSTORE PUSH1 0x4 ADD PUSH2 0x9D SWAP2 SWAP1 PUSH2 0x255 JUMP JUMPDEST PUSH1 0x40 MLOAD DUP1 SWAP2 SUB SWAP1 REVERT JUMPDEST PUSH2 0xB5 DUP2 PUSH2 0xFC PUSH1 0x20 SHL PUSH1 0x20 SHR JUMP JUMPDEST POP DUP1 PUSH1 0x1 PUSH0 PUSH2 0x100 EXP DUP2 SLOAD DUP2 PUSH20 0xFFFFFFFFFFFFFFFFFFFFFFFFFFFFFFFFFFFFFFFF MUL NOT AND SWAP1 DUP4 PUSH20 0xFFFFFFFFFFFFFFFFFFFFFFFFFFFFFFFFFFFFFFFF AND MUL OR SWAP1 SSTORE POP POP PUSH2 0x26E JUMP JUMPDEST PUSH0 PUSH0 PUSH0 SWAP1 SLOAD SWAP1 PUSH2 0x100 EXP SWAP1 DIV PUSH20 0xFFFFFFFFFFFFFFFFFFFFFFFFFFFFFFFFFFFFFFFF AND SWAP1 POP DUP2 PUSH0 PUSH0 PUSH2 0x100 EXP DUP2 SLOAD DUP2 PUSH20 0xFFFFFFFFFFFFFFFFFFFFFFFFFFFFFFFFFFFFFFFF MUL NOT AND SWAP1 DUP4 PUSH20 0xFFFFFFFFFFFFFFFFFFFFFFFFFFFFFFFFFFFFFFFF AND MUL OR SWAP1 SSTORE POP DUP2 PUSH20 0xFFFFFFFFFFFFFFFFFFFFFFFFFFFFFFFFFFFFFFFF AND DUP2 PUSH20 0xFFFFFFFFFFFFFFFFFFFFFFFFFFFFFFFFFFFFFFFF AND PUSH32 0x8BE0079C531659141344CD1FD0A4F28419497F9722A3DAAFE3B4186F6B6457E0 PUSH1 0x40 MLOAD PUSH1 0x40 MLOAD DUP1 SWAP2 SUB SWAP1 LOG3 POP POP JUMP JUMPDEST PUSH0 PUSH0 REVERT JUMPDEST PUSH0 PUSH20 0xFFFFFFFFFFFFFFFFFFFFFFFFFFFFFFFFFFFFFFFF DUP3 AND SWAP1 POP SWAP2 SWAP1 POP JUMP JUMPDEST PUSH0 PUSH2 0x1EA DUP3 PUSH2 0x1C1 JUMP JUMPDEST SWAP1 POP SWAP2 SWAP1 POP JUMP JUMPDEST PUSH2 0x1FA DUP2 PUSH2 0x1E0 JUMP JUMPDEST DUP2 EQ PUSH2 0x204 JUMPI PUSH0 PUSH0 REVERT JUMPDEST POP JUMP JUMPDEST PUSH0 DUP2 MLOAD SWAP1 POP PUSH2 0x215 DUP2 PUSH2 0x1F1 JUMP JUMPDEST SWAP3 SWAP2 POP POP JUMP JUMPDEST PUSH0 PUSH1 0x20 DUP3 DUP5 SUB SLT ISZERO PUSH2 0x230 JUMPI PUSH2 0x22F PUSH2 0x1BD JUMP JUMPDEST JUMPDEST PUSH0 PUSH2 0x23D DUP5 DUP3 DUP6 ADD PUSH2 0x207 JUMP JUMPDEST SWAP2 POP POP SWAP3 SWAP2 POP POP JUMP JUMPDEST PUSH2 0x24F DUP2 PUSH2 0x1E0 JUMP JUMPDEST DUP3 MSTORE POP POP JUMP JUMPDEST PUSH0 PUSH1 0x20 DUP3 ADD SWAP1 POP PUSH2 0x268 PUSH0 DUP4 ADD DUP5 PUSH2 0x246 JUMP JUMPDEST SWAP3 SWAP2 POP POP JUMP JUMPDEST PUSH2 0xB09 DUP1 PUSH2 0x27B PUSH0 CODECOPY PUSH0 RETURN INVALID PUSH1 0x80 PUSH1 0x40 MSTORE PUSH1 0x4 CALLDATASIZE LT PUSH2 0x7E JUMPI PUSH0 CALLDATALOAD PUSH1 0xE0 SHR DUP1 PUSH4 0x9FF933D1 GT PUSH2 0x4D JUMPI DUP1 PUSH4 0x9FF933D1 EQ PUSH2 0x21A JUMPI DUP1 PUSH4 0xAEB5CD5E EQ PUSH2 0x242 JUMPI DUP1 PUSH4 0xC3DFDAE6 EQ PUSH2 0x26A JUMPI DUP1 PUSH4 0xF2FDE38B EQ PUSH2 0x294 JUMPI PUSH2 0x182 JUMP JUMPDEST DUP1 PUSH4 0x12065FE0 EQ PUSH2 0x186 JUMPI DUP1 PUSH4 0x31711884 EQ PUSH2 0x1B0 JUMPI DUP1 PUSH4 0x715018A6 EQ PUSH2 0x1DA JUMPI DUP1 PUSH4 0x8DA5CB5B EQ PUSH2 0x1F0 JUMPI PUSH2 0x182 JUMP JUMPDEST CALLDATASIZE PUSH2 0x182 JUMPI PUSH0 CALLVALUE SWAP1 POP PUSH0 PUSH1 0x2 SLOAD PUSH8 0xDE0B6B3A7640000 DUP4 PUSH2 0x9F SWAP2 SWAP1 PUSH2 0x76C JUMP JUMPDEST PUSH2 0xA9 SWAP2 SWAP1 PUSH2 0x79C JUMP JUMPDEST SWAP1 POP CALLER PUSH20 0xFFFFFFFFFFFFFFFFFFFFFFFFFFFFFFFFFFFFFFFF AND PUSH32 0x8FAFEBCAF9D154343DAD25669BFA277F4FBACD7AC6B0C4FED522580E040A0F33 DUP4 DUP4 PUSH1 0x40 MLOAD PUSH2 0xF3 SWAP3 SWAP2 SWAP1 PUSH2 0x7EC JUMP JUMPDEST PUSH1 0x40 MLOAD DUP1 SWAP2 SUB SWAP1 LOG2 PUSH1 0x1 PUSH0 SWAP1 SLOAD SWAP1 PUSH2 0x100 EXP SWAP1 DIV PUSH20 0xFFFFFFFFFFFFFFFFFFFFFFFFFFFFFFFFFFFFFFFF AND PUSH20 0xFFFFFFFFFFFFFFFFFFFFFFFFFFFFFFFFFFFFFFFF AND PUSH4 0x40C10F19 CALLER DUP4 PUSH1 0x40 MLOAD DUP4 PUSH4 0xFFFFFFFF AND PUSH1 0xE0 SHL DUP2 MSTORE PUSH1 0x4 ADD PUSH2 0x157 SWAP3 SWAP2 SWAP1 PUSH2 0x852 JUMP JUMPDEST PUSH0 PUSH1 0x40 MLOAD DUP1 DUP4 SUB DUP2 PUSH0 DUP8 DUP1 EXTCODESIZE ISZERO DUP1 ISZERO PUSH2 0x16E JUMPI PUSH0 PUSH0 REVERT JUMPDEST POP GAS CALL ISZERO DUP1 ISZERO PUSH2 0x180 JUMPI RETURNDATASIZE PUSH0 PUSH0 RETURNDATACOPY RETURNDATASIZE PUSH0 REVERT JUMPDEST STOP JUMPDEST PUSH0 PUSH0 REVERT JUMPDEST CALLVALUE DUP1 ISZERO PUSH2 0x191 JUMPI PUSH0 PUSH0 REVERT JUMPDEST POP PUSH2 0x19A PUSH2 0x2BC JUMP JUMPDEST PUSH1 0x40 MLOAD PUSH2 0x1A7 SWAP2 SWAP1 PUSH2 0x879 JUMP JUMPDEST PUSH1 0x40 MLOAD DUP1 SWAP2 SUB SWAP1 RETURN JUMPDEST CALLVALUE DUP1 ISZERO PUSH2 0x1BB JUMPI PUSH0 PUSH0 REVERT JUMPDEST POP PUSH2 0x1C4 PUSH2 0x2D6 JUMP JUMPDEST PUSH1 0x40 MLOAD PUSH2 0x1D1 SWAP2 SWAP1 PUSH2 0x879 JUMP JUMPDEST PUSH1 0x40 MLOAD DUP1 SWAP2 SUB SWAP1 RETURN JUMPDEST CALLVALUE DUP1 ISZERO PUSH2 0x1E5 JUMPI PUSH0 PUSH0 REVERT JUMPDEST POP PUSH2 0x1EE PUSH2 0x2DC JUMP JUMPDEST STOP JUMPDEST CALLVALUE DUP1 ISZERO PUSH2 0x1FB JUMPI PUSH0 PUSH0 REVERT JUMPDEST POP PUSH2 0x204 PUSH2 0x2EF JUMP JUMPDEST PUSH1 0x40 MLOAD PUSH2 0x211 SWAP2 SWAP1 PUSH2 0x892 JUMP JUMPDEST PUSH1 0x40 MLOAD DUP1 SWAP2 SUB SWAP1 RETURN JUMPDEST CALLVALUE DUP1 ISZERO PUSH2 0x225 JUMPI PUSH0 PUSH0 REVERT JUMPDEST POP PUSH2 0x240 PUSH1 0x4 DUP1 CALLDATASIZE SUB DUP2 ADD SWAP1 PUSH2 0x23B SWAP2 SWAP1 PUSH2 0x8D9 JUMP JUMPDEST PUSH2 0x316 JUMP JUMPDEST STOP JUMPDEST CALLVALUE DUP1 ISZERO PUSH2 0x24D JUMPI PUSH0 PUSH0 REVERT JUMPDEST POP PUSH2 0x268 PUSH1 0x4 DUP1 CALLDATASIZE SUB DUP2 ADD SWAP1 PUSH2 0x263 SWAP2 SWAP1 PUSH2 0x92E JUMP JUMPDEST PUSH2 0x406 JUMP JUMPDEST STOP JUMPDEST CALLVALUE DUP1 ISZERO PUSH2 0x275 JUMPI PUSH0 PUSH0 REVERT JUMPDEST POP PUSH2 0x27E PUSH2 0x511 JUMP JUMPDEST PUSH1 0x40 MLOAD PUSH2 0x28B SWAP2 SWAP1 PUSH2 0x9B4 JUMP JUMPDEST PUSH1 0x40 MLOAD DUP1 SWAP2 SUB SWAP1 RETURN JUMPDEST CALLVALUE DUP1 ISZERO PUSH2 0x29F JUMPI PUSH0 PUSH0 REVERT JUMPDEST POP PUSH2 0x2BA PUSH1 0x4 DUP1 CALLDATASIZE SUB DUP2 ADD SWAP1 PUSH2 0x2B5 SWAP2 SWAP1 PUSH2 0x8D9 JUMP JUMPDEST PUSH2 0x536 JUMP JUMPDEST STOP JUMPDEST PUSH0 PUSH8 0xDE0B6B3A7640000 SELFBALANCE PUSH2 0x2D1 SWAP2 SWAP1 PUSH2 0x76C JUMP JUMPDEST SWAP1 POP SWAP1 JUMP JUMPDEST PUSH1 0x2 SLOAD DUP2 JUMP JUMPDEST PUSH2 0x2E4 PUSH2 0x5BA JUMP JUMPDEST PUSH2 0x2ED PUSH0 PUSH2 0x641 JUMP JUMPDEST JUMP JUMPDEST PUSH0 PUSH0 PUSH0 SWAP1 SLOAD SWAP1 PUSH2 0x100 EXP SWAP1 DIV PUSH20 0xFFFFFFFFFFFFFFFFFFFFFFFFFFFFFFFFFFFFFFFF AND SWAP1 POP SWAP1 JUMP JUMPDEST PUSH2 0x31E PUSH2 0x5BA JUMP JUMPDEST PUSH0 PUSH20 0xFFFFFFFFFFFFFFFFFFFFFFFFFFFFFFFFFFFFFFFF AND DUP2 PUSH20 0xFFFFFFFFFFFFFFFFFFFFFFFFFFFFFFFFFFFFFFFF AND SUB PUSH2 0x38C JUMPI PUSH1 0x40 MLOAD PUSH32 0x8C379A000000000000000000000000000000000000000000000000000000000 DUP2 MSTORE PUSH1 0x4 ADD PUSH2 0x383 SWAP1 PUSH2 0xA27 JUMP JUMPDEST PUSH1 0x40 MLOAD DUP1 SWAP2 SUB SWAP1 REVERT JUMPDEST DUP1 PUSH1 0x1 PUSH0 PUSH2 0x100 EXP DUP2 SLOAD DUP2 PUSH20 0xFFFFFFFFFFFFFFFFFFFFFFFFFFFFFFFFFFFFFFFF MUL NOT AND SWAP1 DUP4 PUSH20 0xFFFFFFFFFFFFFFFFFFFFFFFFFFFFFFFFFFFFFFFF AND MUL OR SWAP1 SSTORE POP PUSH32 0x4A0158AB28822BD17E87082F66E7C12CA4A26D09A62505945C8767F2BDA52A82 DUP2 PUSH1 0x40 MLOAD PUSH2 0x3FB SWAP2 SWAP1 PUSH2 0x892 JUMP JUMPDEST PUSH1 0x40 MLOAD DUP1 SWAP2 SUB SWAP1 LOG1 POP JUMP JUMPDEST PUSH2 0x40E PUSH2 0x5BA JUMP JUMPDEST PUSH0 PUSH8 0xDE0B6B3A7640000 DUP3 PUSH2 0x423 SWAP2 SWAP1 PUSH2 0x79C JUMP JUMPDEST SWAP1 POP PUSH0 SELFBALANCE SWAP1 POP DUP2 DUP2 LT ISZERO PUSH2 0x46C JUMPI PUSH1 0x40 MLOAD PUSH32 0x8C379A000000000000000000000000000000000000000000000000000000000 DUP2 MSTORE PUSH1 0x4 ADD PUSH2 0x463 SWAP1 PUSH2 0xAB5 JUMP JUMPDEST PUSH1 0x40 MLOAD DUP1 SWAP2 SUB SWAP1 REVERT JUMPDEST PUSH2 0x474 PUSH2 0x2EF JUMP JUMPDEST PUSH20 0xFFFFFFFFFFFFFFFFFFFFFFFFFFFFFFFFFFFFFFFF AND PUSH2 0x8FC DUP4 SWAP1 DUP2 ISZERO MUL SWAP1 PUSH1 0x40 MLOAD PUSH0 PUSH1 0x40 MLOAD DUP1 DUP4 SUB DUP2 DUP6 DUP9 DUP9 CALL SWAP4 POP POP POP POP ISZERO DUP1 ISZERO PUSH2 0x4B6 JUMPI RETURNDATASIZE PUSH0 PUSH0 RETURNDATACOPY RETURNDATASIZE PUSH0 REVERT JUMPDEST POP PUSH2 0x4BF PUSH2 0x2EF JUMP JUMPDEST PUSH20 0xFFFFFFFFFFFFFFFFFFFFFFFFFFFFFFFFFFFFFFFF AND PUSH32 0x992ADAD2762542D8FDFD4533FAD14B8033BA24139E2F78DC7100711AFFF24671 DUP4 PUSH1 0x40 MLOAD PUSH2 0x504 SWAP2 SWAP1 PUSH2 0x879 JUMP JUMPDEST PUSH1 0x40 MLOAD DUP1 SWAP2 SUB SWAP1 LOG2 POP POP POP JUMP JUMPDEST PUSH1 0x1 PUSH0 SWAP1 SLOAD SWAP1 PUSH2 0x100 EXP SWAP1 DIV PUSH20 0xFFFFFFFFFFFFFFFFFFFFFFFFFFFFFFFFFFFFFFFF AND DUP2 JUMP JUMPDEST PUSH2 0x53E PUSH2 0x5BA JUMP JUMPDEST PUSH0 PUSH20 0xFFFFFFFFFFFFFFFFFFFFFFFFFFFFFFFFFFFFFFFF AND DUP2 PUSH20 0xFFFFFFFFFFFFFFFFFFFFFFFFFFFFFFFFFFFFFFFF AND SUB PUSH2 0x5AE JUMPI PUSH0 PUSH1 0x40 MLOAD PUSH32 0x1E4FBDF700000000000000000000000000000000000000000000000000000000 DUP2 MSTORE PUSH1 0x4 ADD PUSH2 0x5A5 SWAP2 SWAP1 PUSH2 0x892 JUMP JUMPDEST PUSH1 0x40 MLOAD DUP1 SWAP2 SUB SWAP1 REVERT JUMPDEST PUSH2 0x5B7 DUP2 PUSH2 0x641 JUMP JUMPDEST POP JUMP JUMPDEST PUSH2 0x5C2 PUSH2 0x702 JUMP JUMPDEST PUSH20 0xFFFFFFFFFFFFFFFFFFFFFFFFFFFFFFFFFFFFFFFF AND PUSH2 0x5E0 PUSH2 0x2EF JUMP JUMPDEST PUSH20 0xFFFFFFFFFFFFFFFFFFFFFFFFFFFFFFFFFFFFFFFF AND EQ PUSH2 0x63F JUMPI PUSH2 0x603 PUSH2 0x702 JUMP JUMPDEST PUSH1 0x40 MLOAD PUSH32 0x118CDAA700000000000000000000000000000000000000000000000000000000 DUP2 MSTORE PUSH1 0x4 ADD PUSH2 0x636 SWAP2 SWAP1 PUSH2 0x892 JUMP JUMPDEST PUSH1 0x40 MLOAD DUP1 SWAP2 SUB SWAP1 REVERT JUMPDEST JUMP JUMPDEST PUSH0 PUSH0 PUSH0 SWAP1 SLOAD SWAP1 PUSH2 0x100 EXP SWAP1 DIV PUSH20 0xFFFFFFFFFFFFFFFFFFFFFFFFFFFFFFFFFFFFFFFF AND SWAP1 POP DUP2 PUSH0 PUSH0 PUSH2 0x100 EXP DUP2 SLOAD DUP2 PUSH20 0xFFFFFFFFFFFFFFFFFFFFFFFFFFFFFFFFFFFFFFFF MUL NOT AND SWAP1 DUP4 PUSH20 0xFFFFFFFFFFFFFFFFFFFFFFFFFFFFFFFFFFFFFFFF AND MUL OR SWAP1 SSTORE POP DUP2 PUSH20 0xFFFFFFFFFFFFFFFFFFFFFFFFFFFFFFFFFFFFFFFF AND DUP2 PUSH20 0xFFFFFFFFFFFFFFFFFFFFFFFFFFFFFFFFFFFFFFFF AND PUSH32 0x8BE0079C531659141344CD1FD0A4F28419497F9722A3DAAFE3B4186F6B6457E0 PUSH1 0x40 MLOAD PUSH1 0x40 MLOAD DUP1 SWAP2 SUB SWAP1 LOG3 POP POP JUMP JUMPDEST PUSH0 CALLER SWAP1 POP SWAP1 JUMP JUMPDEST PUSH0 DUP2 SWAP1 POP SWAP2 SWAP1 POP JUMP JUMPDEST PUSH32 0x4E487B7100000000000000000000000000000000000000000000000000000000 PUSH0 MSTORE PUSH1 0x12 PUSH1 0x4 MSTORE PUSH1 0x24 PUSH0 REVERT JUMPDEST PUSH32 0x4E487B7100000000000000000000000000000000000000000000000000000000 PUSH0 MSTORE PUSH1 0x11 PUSH1 0x4 MSTORE PUSH1 0x24 PUSH0 REVERT JUMPDEST PUSH0 PUSH2 0x776 DUP3 PUSH2 0x709 JUMP JUMPDEST SWAP2 POP PUSH2 0x781 DUP4 PUSH2 0x709 JUMP JUMPDEST SWAP3 POP DUP3 PUSH2 0x791 JUMPI PUSH2 0x790 PUSH2 0x712 JUMP JUMPDEST JUMPDEST DUP3 DUP3 DIV SWAP1 POP SWAP3 SWAP2 POP POP JUMP JUMPDEST PUSH0 PUSH2 0x7A6 DUP3 PUSH2 0x709 JUMP JUMPDEST SWAP2 POP PUSH2 0x7B1 DUP4 PUSH2 0x709 JUMP JUMPDEST SWAP3 POP DUP3 DUP3 MUL PUSH2 0x7BF DUP2 PUSH2 0x709 JUMP JUMPDEST SWAP2 POP DUP3 DUP3 DIV DUP5 EQ DUP4 ISZERO OR PUSH2 0x7D6 JUMPI PUSH2 0x7D5 PUSH2 0x73F JUMP JUMPDEST JUMPDEST POP SWAP3 SWAP2 POP POP JUMP JUMPDEST PUSH2 0x7E6 DUP2 PUSH2 0x709 JUMP JUMPDEST DUP3 MSTORE POP POP JUMP JUMPDEST PUSH0 PUSH1 0x40 DUP3 ADD SWAP1 POP PUSH2 0x7FF PUSH0 DUP4 ADD DUP6 PUSH2 0x7DD JUMP JUMPDEST PUSH2 0x80C PUSH1 0x20 DUP4 ADD DUP5 PUSH2 0x7DD JUMP JUMPDEST SWAP4 SWAP3 POP POP POP JUMP JUMPDEST PUSH0 PUSH20 0xFFFFFFFFFFFFFFFFFFFFFFFFFFFFFFFFFFFFFFFF DUP3 AND SWAP1 POP SWAP2 SWAP1 POP JUMP JUMPDEST PUSH0 PUSH2 0x83C DUP3 PUSH2 0x813 JUMP JUMPDEST SWAP1 POP SWAP2 SWAP1 POP JUMP JUMPDEST PUSH2 0x84C DUP2 PUSH2 0x832 JUMP JUMPDEST DUP3 MSTORE POP POP JUMP JUMPDEST PUSH0 PUSH1 0x40 DUP3 ADD SWAP1 POP PUSH2 0x865 PUSH0 DUP4 ADD DUP6 PUSH2 0x843 JUMP JUMPDEST PUSH2 0x872 PUSH1 0x20 DUP4 ADD DUP5 PUSH2 0x7DD JUMP JUMPDEST SWAP4 SWAP3 POP POP POP JUMP JUMPDEST PUSH0 PUSH1 0x20 DUP3 ADD SWAP1 POP PUSH2 0x88C PUSH0 DUP4 ADD DUP5 PUSH2 0x7DD JUMP JUMPDEST SWAP3 SWAP2 POP POP JUMP JUMPDEST PUSH0 PUSH1 0x20 DUP3 ADD SWAP1 POP PUSH2 0x8A5 PUSH0 DUP4 ADD DUP5 PUSH2 0x843 JUMP JUMPDEST SWAP3 SWAP2 POP POP JUMP JUMPDEST PUSH0 PUSH0 REVERT JUMPDEST PUSH2 0x8B8 DUP2 PUSH2 0x832 JUMP JUMPDEST DUP2 EQ PUSH2 0x8C2 JUMPI PUSH0 PUSH0 REVERT JUMPDEST POP JUMP JUMPDEST PUSH0 DUP2 CALLDATALOAD SWAP1 POP PUSH2 0x8D3 DUP2 PUSH2 0x8AF JUMP JUMPDEST SWAP3 SWAP2 POP POP JUMP JUMPDEST PUSH0 PUSH1 0x20 DUP3 DUP5 SUB SLT ISZERO PUSH2 0x8EE JUMPI PUSH2 0x8ED PUSH2 0x8AB JUMP JUMPDEST JUMPDEST PUSH0 PUSH2 0x8FB DUP5 DUP3 DUP6 ADD PUSH2 0x8C5 JUMP JUMPDEST SWAP2 POP POP SWAP3 SWAP2 POP POP JUMP JUMPDEST PUSH2 0x90D DUP2 PUSH2 0x709 JUMP JUMPDEST DUP2 EQ PUSH2 0x917 JUMPI PUSH0 PUSH0 REVERT JUMPDEST POP JUMP JUMPDEST PUSH0 DUP2 CALLDATALOAD SWAP1 POP PUSH2 0x928 DUP2 PUSH2 0x904 JUMP JUMPDEST SWAP3 SWAP2 POP POP JUMP JUMPDEST PUSH0 PUSH1 0x20 DUP3 DUP5 SUB SLT ISZERO PUSH2 0x943 JUMPI PUSH2 0x942 PUSH2 0x8AB JUMP JUMPDEST JUMPDEST PUSH0 PUSH2 0x950 DUP5 DUP3 DUP6 ADD PUSH2 0x91A JUMP JUMPDEST SWAP2 POP POP SWAP3 SWAP2 POP POP JUMP JUMPDEST PUSH0 DUP2 SWAP1 POP SWAP2 SWAP1 POP JUMP JUMPDEST PUSH0 PUSH2 0x97C PUSH2 0x977 PUSH2 0x972 DUP5 PUSH2 0x813 JUMP JUMPDEST PUSH2 0x959 JUMP JUMPDEST PUSH2 0x813 JUMP JUMPDEST SWAP1 POP SWAP2 SWAP1 POP JUMP JUMPDEST PUSH0 PUSH2 0x98D DUP3 PUSH2 0x962 JUMP JUMPDEST SWAP1 POP SWAP2 SWAP1 POP JUMP JUMPDEST PUSH0 PUSH2 0x99E DUP3 PUSH2 0x983 JUMP JUMPDEST SWAP1 POP SWAP2 SWAP1 POP JUMP JUMPDEST PUSH2 0x9AE DUP2 PUSH2 0x994 JUMP JUMPDEST DUP3 MSTORE POP POP JUMP JUMPDEST PUSH0 PUSH1 0x20 DUP3 ADD SWAP1 POP PUSH2 0x9C7 PUSH0 DUP4 ADD DUP5 PUSH2 0x9A5 JUMP JUMPDEST SWAP3 SWAP2 POP POP JUMP JUMPDEST PUSH0 DUP3 DUP3 MSTORE PUSH1 0x20 DUP3 ADD SWAP1 POP SWAP3 SWAP2 POP POP JUMP JUMPDEST PUSH32 0x496E76616C696420616464726573730000000000000000000000000000000000 PUSH0 DUP3 ADD MSTORE POP JUMP JUMPDEST PUSH0 PUSH2 0xA11 PUSH1 0xF DUP4 PUSH2 0x9CD JUMP JUMPDEST SWAP2 POP PUSH2 0xA1C DUP3 PUSH2 0x9DD JUMP JUMPDEST PUSH1 0x20 DUP3 ADD SWAP1 POP SWAP2 SWAP1 POP JUMP JUMPDEST PUSH0 PUSH1 0x20 DUP3 ADD SWAP1 POP DUP2 DUP2 SUB PUSH0 DUP4 ADD MSTORE PUSH2 0xA3E DUP2 PUSH2 0xA05 JUMP JUMPDEST SWAP1 POP SWAP2 SWAP1 POP JUMP JUMPDEST PUSH32 0x4E6F7420656E6F756768204156415820696E20636F6E747261637420746F2077 PUSH0 DUP3 ADD MSTORE PUSH32 0x6974686472617700000000000000000000000000000000000000000000000000 PUSH1 0x20 DUP3 ADD MSTORE POP JUMP JUMPDEST PUSH0 PUSH2 0xA9F PUSH1 0x27 DUP4 PUSH2 0x9CD JUMP JUMPDEST SWAP2 POP PUSH2 0xAAA DUP3 PUSH2 0xA45 JUMP JUMPDEST PUSH1 0x40 DUP3 ADD SWAP1 POP SWAP2 SWAP1 POP JUMP JUMPDEST PUSH0 PUSH1 0x20 DUP3 ADD SWAP1 POP DUP2 DUP2 SUB PUSH0 DUP4 ADD MSTORE PUSH2 0xACC DUP2 PUSH2 0xA93 JUMP JUMPDEST SWAP1 POP SWAP2 SWAP1 POP JUMP INVALID LOG2 PUSH5 0x6970667358 0x22 SLT KECCAK256 JUMP BASEFEE 0x2B DUP13 0xB7 PUSH2 0x9EC3 0x23 GT STATICCALL 0xCC DUP4 PUSH28 0x7184C8B51F74E7A12F577B1E99C5CC79862964736F6C634300081C00 CALLER "
				},
				"gasEstimates": {
					"creation": {
						"codeDepositCost": "565000",
						"executionCost": "infinite",
						"totalCost": "infinite"
					},
					"external": {
						"gameToken()": "infinite",
						"getBalance()": "infinite",
						"owner()": "2581",
						"renounceOwnership()": "infinite",
						"setGameTokenAddress(address)": "infinite",
						"tokenRate()": "2448",
						"transferOwnership(address)": "infinite",
						"withdrawAVAX(uint256)": "infinite"
					}
				},
				"methodIdentifiers": {
					"gameToken()": "c3dfdae6",
					"getBalance()": "12065fe0",
					"owner()": "8da5cb5b",
					"renounceOwnership()": "715018a6",
					"setGameTokenAddress(address)": "9ff933d1",
					"tokenRate()": "31711884",
					"transferOwnership(address)": "f2fde38b",
					"withdrawAVAX(uint256)": "aeb5cd5e"
				}
			},
			"storageLayout": {
				"storage": [
					{
						"astId": 8,
						"contract": "contracts/PaymentContract.sol:PaymentContract",
						"label": "_owner",
						"offset": 0,
						"slot": "0",
						"type": "t_address"
					},
					{
						"astId": 1094,
						"contract": "contracts/PaymentContract.sol:PaymentContract",
						"label": "gameToken",
						"offset": 0,
						"slot": "1",
						"type": "t_contract(GameToken)1085"
					},
					{
						"astId": 1139,
						"contract": "contracts/PaymentContract.sol:PaymentContract",
						"label": "tokenRate",
						"offset": 0,
						"slot": "2",
						"type": "t_uint256"
					}
				],
				"types": {
					"t_address": {
						"encoding": "inplace",
						"label": "address",
						"numberOfBytes": "20"
					},
					"t_contract(GameToken)1085": {
						"encoding": "inplace",
						"label": "contract GameToken",
						"numberOfBytes": "20"
					},
					"t_uint256": {
						"encoding": "inplace",
						"label": "uint256",
						"numberOfBytes": "32"
					}
				}
			},
			"userdoc": {
				"kind": "user",
				"methods": {},
				"version": 1
			}
		}
	}
}